{
  "abi": [
    {
      "inputs": [],
      "stateMutability": "nonpayable",
      "type": "constructor"
    },
    {
      "inputs": [],
      "name": "BuyTickets",
      "outputs": [],
      "stateMutability": "payable",
      "type": "function"
    },
    {
      "inputs": [],
      "name": "CurrentWinningReward",
      "outputs": [
        {
          "internalType": "uint256",
          "name": "",
          "type": "uint256"
        }
      ],
      "stateMutability": "view",
      "type": "function"
    },
    {
      "inputs": [],
      "name": "DrawWinnerTicket",
      "outputs": [],
      "stateMutability": "nonpayable",
      "type": "function"
    },
    {
      "inputs": [],
      "name": "IsWinner",
      "outputs": [
        {
          "internalType": "bool",
          "name": "",
          "type": "bool"
        }
      ],
      "stateMutability": "view",
      "type": "function"
    },
    {
      "inputs": [],
      "name": "RefundAll",
      "outputs": [],
      "stateMutability": "nonpayable",
      "type": "function"
    },
    {
      "inputs": [],
      "name": "RemainingTickets",
      "outputs": [
        {
          "internalType": "uint256",
          "name": "",
          "type": "uint256"
        }
      ],
      "stateMutability": "view",
      "type": "function"
    },
    {
      "inputs": [],
      "name": "WithdrawCommission",
      "outputs": [],
      "stateMutability": "nonpayable",
      "type": "function"
    },
    {
      "inputs": [],
      "name": "WithdrawWinnings",
      "outputs": [],
      "stateMutability": "nonpayable",
      "type": "function"
    },
    {
      "inputs": [],
      "name": "checkWinningsAmount",
      "outputs": [
        {
          "internalType": "uint256",
          "name": "",
          "type": "uint256"
        }
      ],
      "stateMutability": "view",
      "type": "function"
    },
    {
      "inputs": [],
      "name": "duration",
      "outputs": [
        {
          "internalType": "uint256",
          "name": "",
          "type": "uint256"
        }
      ],
      "stateMutability": "view",
      "type": "function"
    },
    {
      "inputs": [],
      "name": "expiration",
      "outputs": [
        {
          "internalType": "uint256",
          "name": "",
          "type": "uint256"
        }
      ],
      "stateMutability": "view",
      "type": "function"
    },
    {
      "inputs": [],
      "name": "getTickets",
      "outputs": [
        {
          "internalType": "address[]",
          "name": "",
          "type": "address[]"
        }
      ],
      "stateMutability": "view",
      "type": "function"
    },
    {
      "inputs": [
        {
          "internalType": "address",
          "name": "addr",
          "type": "address"
        }
      ],
      "name": "getTicketsForAddress",
      "outputs": [
        {
          "internalType": "address[]",
          "name": "",
          "type": "address[]"
        }
      ],
      "stateMutability": "view",
      "type": "function"
    },
    {
      "inputs": [
        {
          "internalType": "address",
          "name": "addr",
          "type": "address"
        }
      ],
      "name": "getWinningsForAddress",
      "outputs": [
        {
          "internalType": "uint256",
          "name": "",
          "type": "uint256"
        }
      ],
      "stateMutability": "view",
      "type": "function"
    },
    {
      "inputs": [],
      "name": "lastWinner",
      "outputs": [
        {
          "internalType": "address",
          "name": "",
          "type": "address"
        }
      ],
      "stateMutability": "view",
      "type": "function"
    },
    {
      "inputs": [],
      "name": "lastWinnerAmount",
      "outputs": [
        {
          "internalType": "uint256",
          "name": "",
          "type": "uint256"
        }
      ],
      "stateMutability": "view",
      "type": "function"
    },
    {
      "inputs": [],
      "name": "lotteryOperator",
      "outputs": [
        {
          "internalType": "address",
          "name": "",
          "type": "address"
        }
      ],
      "stateMutability": "view",
      "type": "function"
    },
    {
      "inputs": [],
      "name": "maxTickets",
      "outputs": [
        {
          "internalType": "uint256",
          "name": "",
          "type": "uint256"
        }
      ],
      "stateMutability": "view",
      "type": "function"
    },
    {
      "inputs": [],
      "name": "operatorTotalCommission",
      "outputs": [
        {
          "internalType": "uint256",
          "name": "",
          "type": "uint256"
        }
      ],
      "stateMutability": "view",
      "type": "function"
    },
    {
      "inputs": [],
      "name": "restartDraw",
      "outputs": [],
      "stateMutability": "nonpayable",
      "type": "function"
    },
    {
      "inputs": [],
      "name": "ticketCommission",
      "outputs": [
        {
          "internalType": "uint256",
          "name": "",
          "type": "uint256"
        }
      ],
      "stateMutability": "view",
      "type": "function"
    },
    {
      "inputs": [],
      "name": "ticketPrice",
      "outputs": [
        {
          "internalType": "uint256",
          "name": "",
          "type": "uint256"
        }
      ],
      "stateMutability": "view",
      "type": "function"
    },
    {
      "inputs": [
        {
          "internalType": "uint256",
          "name": "",
          "type": "uint256"
        }
      ],
      "name": "tickets",
      "outputs": [
        {
          "internalType": "address",
          "name": "",
          "type": "address"
        }
      ],
      "stateMutability": "view",
      "type": "function"
    },
    {
      "inputs": [
        {
          "internalType": "address",
          "name": "",
          "type": "address"
        }
      ],
      "name": "winnings",
      "outputs": [
        {
          "internalType": "uint256",
          "name": "",
          "type": "uint256"
        }
      ],
      "stateMutability": "view",
      "type": "function"
    }
  ],
  "devdoc": {
    "kind": "dev",
    "methods": {},
    "version": 1
  },
  "evm": {
    "assembly": "    /* \"Lottery.sol\":155:5294  contract Lottery {... */\n  mstore(0x40, 0x80)\n    /* \"Lottery.sol\":683:684  0 */\n  0x00\n    /* \"Lottery.sol\":642:684  uint256 public operatorTotalCommission = 0 */\n  0x02\n  sstore\n    /* \"Lottery.sol\":1408:1519  constructor() {... */\n  callvalue\n  dup1\n  iszero\n  tag_1\n  jumpi\n  0x00\n  dup1\n  revert\ntag_1:\n  pop\n    /* \"Lottery.sol\":1433:1448  lotteryOperator */\n  0x01\n    /* \"Lottery.sol\":1433:1461  lotteryOperator = msg.sender */\n  dup1\n  sload\n  not(sub(shl(0xa0, 0x01), 0x01))\n  and\n    /* \"Lottery.sol\":1451:1461  msg.sender */\n  caller\n    /* \"Lottery.sol\":1433:1461  lotteryOperator = msg.sender */\n  or\n  swap1\n  sstore\n    /* \"Lottery.sol\":1485:1511  block.timestamp + duration */\n  tag_4\n    /* \"Lottery.sol\":432:442  30 minutes */\n  0x0708\n    /* \"Lottery.sol\":1485:1500  block.timestamp */\n  timestamp\n    /* \"Lottery.sol\":1485:1511  block.timestamp + duration */\n  tag_5\n  jump\t// in\ntag_4:\n    /* \"Lottery.sol\":1472:1482  expiration */\n  0x00\n    /* \"Lottery.sol\":1472:1511  expiration = block.timestamp + duration */\n  sstore\n    /* \"Lottery.sol\":155:5294  contract Lottery {... */\n  jump(tag_7)\n    /* \"#utility.yul\":14:236   */\ntag_5:\n    /* \"#utility.yul\":79:88   */\n  dup1\n  dup3\n  add\n    /* \"#utility.yul\":100:110   */\n  dup1\n  dup3\n  gt\n    /* \"#utility.yul\":97:230   */\n  iszero\n  tag_9\n  jumpi\n    /* \"#utility.yul\":152:162   */\n  0x4e487b71\n    /* \"#utility.yul\":147:150   */\n  0xe0\n    /* \"#utility.yul\":143:163   */\n  shl\n    /* \"#utility.yul\":140:141   */\n  0x00\n    /* \"#utility.yul\":133:164   */\n  mstore\n    /* \"#utility.yul\":187:191   */\n  0x11\n    /* \"#utility.yul\":184:185   */\n  0x04\n    /* \"#utility.yul\":177:192   */\n  mstore\n    /* \"#utility.yul\":215:219   */\n  0x24\n    /* \"#utility.yul\":212:213   */\n  0x00\n    /* \"#utility.yul\":205:220   */\n  revert\n    /* \"#utility.yul\":97:230   */\ntag_9:\n    /* \"#utility.yul\":14:236   */\n  swap3\n  swap2\n  pop\n  pop\n  jump\t// out\ntag_7:\n    /* \"Lottery.sol\":155:5294  contract Lottery {... */\n  dataSize(sub_0)\n  dup1\n  dataOffset(sub_0)\n  0x00\n  codecopy\n  0x00\n  return\nstop\n\nsub_0: assembly {\n        /* \"Lottery.sol\":155:5294  contract Lottery {... */\n      mstore(0x40, 0x80)\n      jumpi(tag_1, lt(calldatasize, 0x04))\n      shr(0xe0, calldataload(0x00))\n      dup1\n      0x91d8b14e\n      gt\n      tag_26\n      jumpi\n      dup1\n      0xba946d79\n      gt\n      tag_27\n      jumpi\n      dup1\n      0xea3a1499\n      gt\n      tag_28\n      jumpi\n      dup1\n      0xea3a1499\n      eq\n      tag_23\n      jumpi\n      dup1\n      0xf2613269\n      eq\n      tag_24\n      jumpi\n      dup1\n      0xfe188184\n      eq\n      tag_25\n      jumpi\n      0x00\n      dup1\n      revert\n    tag_28:\n      dup1\n      0xba946d79\n      eq\n      tag_20\n      jumpi\n      dup1\n      0xc6944fa0\n      eq\n      tag_21\n      jumpi\n      dup1\n      0xdd64e534\n      eq\n      tag_22\n      jumpi\n      0x00\n      dup1\n      revert\n    tag_27:\n      dup1\n      0x9b894703\n      gt\n      tag_29\n      jumpi\n      dup1\n      0x9b894703\n      eq\n      tag_17\n      jumpi\n      dup1\n      0xa88f4672\n      eq\n      tag_18\n      jumpi\n      dup1\n      0xb9a8efb9\n      eq\n      tag_19\n      jumpi\n      0x00\n      dup1\n      revert\n    tag_29:\n      dup1\n      0x91d8b14e\n      eq\n      tag_14\n      jumpi\n      dup1\n      0x93a563b5\n      eq\n      tag_15\n      jumpi\n      dup1\n      0x96c85ef3\n      eq\n      tag_16\n      jumpi\n      0x00\n      dup1\n      revert\n    tag_26:\n      dup1\n      0x4788af7c\n      gt\n      tag_30\n      jumpi\n      dup1\n      0x5a58acdd\n      gt\n      tag_31\n      jumpi\n      dup1\n      0x5a58acdd\n      eq\n      tag_11\n      jumpi\n      dup1\n      0x6032a4f9\n      eq\n      tag_12\n      jumpi\n      dup1\n      0x71827b7b\n      eq\n      tag_13\n      jumpi\n      0x00\n      dup1\n      revert\n    tag_31:\n      dup1\n      0x4788af7c\n      eq\n      tag_8\n      jumpi\n      dup1\n      0x4ed02622\n      eq\n      tag_9\n      jumpi\n      dup1\n      0x50b44712\n      eq\n      tag_10\n      jumpi\n      0x00\n      dup1\n      revert\n    tag_30:\n      dup1\n      0x1209b1f6\n      gt\n      tag_32\n      jumpi\n      dup1\n      0x1209b1f6\n      eq\n      tag_5\n      jumpi\n      dup1\n      0x35580df2\n      eq\n      tag_6\n      jumpi\n      dup1\n      0x4665096d\n      eq\n      tag_7\n      jumpi\n      0x00\n      dup1\n      revert\n    tag_32:\n      dup1\n      0x06f7f3bf\n      eq\n      tag_2\n      jumpi\n      dup1\n      0x0789c607\n      eq\n      tag_3\n      jumpi\n      dup1\n      0x0fb5a6b4\n      eq\n      tag_4\n      jumpi\n    tag_1:\n      0x00\n      dup1\n      revert\n        /* \"Lottery.sol\":789:820  uint256 public lastWinnerAmount */\n    tag_2:\n      callvalue\n      dup1\n      iszero\n      tag_33\n      jumpi\n      0x00\n      dup1\n      revert\n    tag_33:\n      pop\n      tag_34\n      sload(0x04)\n      dup2\n      jump\n    tag_34:\n      mload(0x40)\n        /* \"#utility.yul\":160:185   */\n      swap1\n      dup2\n      mstore\n        /* \"#utility.yul\":148:150   */\n      0x20\n        /* \"#utility.yul\":133:151   */\n      add\n        /* \"Lottery.sol\":789:820  uint256 public lastWinnerAmount */\n    tag_36:\n      mload(0x40)\n      dup1\n      swap2\n      sub\n      swap1\n      return\n        /* \"Lottery.sol\":3857:4071  function checkWinningsAmount() public view returns (uint256) {... */\n    tag_3:\n      callvalue\n      dup1\n      iszero\n      tag_38\n      jumpi\n      0x00\n      dup1\n      revert\n    tag_38:\n      pop\n        /* \"Lottery.sol\":3962:3972  msg.sender */\n      caller\n        /* \"Lottery.sol\":3909:3916  uint256 */\n      0x00\n        /* \"Lottery.sol\":4012:4028  winnings[winner] */\n      swap1\n      dup2\n      mstore\n        /* \"Lottery.sol\":4012:4020  winnings */\n      0x05\n        /* \"Lottery.sol\":4012:4028  winnings[winner] */\n      0x20\n      mstore\n      0x40\n      swap1\n      keccak256\n      sload\n        /* \"Lottery.sol\":3857:4071  function checkWinningsAmount() public view returns (uint256) {... */\n      jump(tag_34)\n        /* \"Lottery.sol\":397:442  uint256 public constant duration = 30 minutes */\n    tag_4:\n      callvalue\n      dup1\n      iszero\n      tag_42\n      jumpi\n      0x00\n      dup1\n      revert\n    tag_42:\n      pop\n      tag_34\n        /* \"Lottery.sol\":432:442  30 minutes */\n      0x0708\n        /* \"Lottery.sol\":397:442  uint256 public constant duration = 30 minutes */\n      dup2\n      jump\n        /* \"Lottery.sol\":179:227  uint256 public constant ticketPrice = 0.01 ether */\n    tag_5:\n      callvalue\n      dup1\n      iszero\n      tag_46\n      jumpi\n      0x00\n      dup1\n      revert\n    tag_46:\n      pop\n      tag_34\n        /* \"Lottery.sol\":217:227  0.01 ether */\n      0x2386f26fc10000\n        /* \"Lottery.sol\":179:227  uint256 public constant ticketPrice = 0.01 ether */\n      dup2\n      jump\n        /* \"Lottery.sol\":4675:4943  function WithdrawCommission() public isOperator {... */\n    tag_6:\n      callvalue\n      dup1\n      iszero\n      tag_50\n      jumpi\n      0x00\n      dup1\n      revert\n    tag_50:\n      pop\n      tag_51\n      tag_52\n      jump\t// in\n    tag_51:\n      stop\n        /* \"Lottery.sol\":487:512  uint256 public expiration */\n    tag_7:\n      callvalue\n      dup1\n      iszero\n      tag_53\n      jumpi\n      0x00\n      dup1\n      revert\n    tag_53:\n      pop\n      tag_34\n      sload(0x00)\n      dup2\n      jump\n        /* \"Lottery.sol\":2896:3634  function DrawWinnerTicket() public isOperator {... */\n    tag_8:\n      callvalue\n      dup1\n      iszero\n      tag_57\n      jumpi\n      0x00\n      dup1\n      revert\n    tag_57:\n      pop\n      tag_51\n      tag_59\n      jump\t// in\n        /* \"Lottery.sol\":1558:1652  function getTickets() public view returns (address[] memory) {... */\n    tag_9:\n      callvalue\n      dup1\n      iszero\n      tag_60\n      jumpi\n      0x00\n      dup1\n      revert\n    tag_60:\n      pop\n      tag_61\n      tag_62\n      jump\t// in\n    tag_61:\n      mload(0x40)\n      tag_36\n      swap2\n      swap1\n      tag_64\n      jump\t// in\n        /* \"Lottery.sol\":958:982  address[] public tickets */\n    tag_10:\n      callvalue\n      dup1\n      iszero\n      tag_65\n      jumpi\n      0x00\n      dup1\n      revert\n    tag_65:\n      pop\n      tag_66\n      tag_67\n      calldatasize\n      0x04\n      tag_68\n      jump\t// in\n    tag_67:\n      tag_69\n      jump\t// in\n    tag_66:\n      mload(0x40)\n      sub(shl(0xa0, 0x01), 0x01)\n        /* \"#utility.yul\":1231:1286   */\n      swap1\n      swap2\n      and\n        /* \"#utility.yul\":1213:1287   */\n      dup2\n      mstore\n        /* \"#utility.yul\":1201:1203   */\n      0x20\n        /* \"#utility.yul\":1186:1204   */\n      add\n        /* \"Lottery.sol\":958:982  address[] public tickets */\n      tag_36\n        /* \"#utility.yul\":1067:1293   */\n      jump\n        /* \"Lottery.sol\":576:606  address public lotteryOperator */\n    tag_11:\n      callvalue\n      dup1\n      iszero\n      tag_72\n      jumpi\n      0x00\n      dup1\n      revert\n    tag_72:\n      pop\n      sload(0x01)\n      tag_66\n      swap1\n      sub(shl(0xa0, 0x01), 0x01)\n      and\n      dup2\n      jump\n        /* \"Lottery.sol\":312:366  uint256 public constant ticketCommission = 0.001 ether */\n    tag_12:\n      callvalue\n      dup1\n      iszero\n      tag_76\n      jumpi\n      0x00\n      dup1\n      revert\n    tag_76:\n      pop\n      tag_34\n        /* \"Lottery.sol\":355:366  0.001 ether */\n      0x038d7ea4c68000\n        /* \"Lottery.sol\":312:366  uint256 public constant ticketCommission = 0.001 ether */\n      dup2\n      jump\n        /* \"Lottery.sol\":4079:4317  function WithdrawWinnings() public isWinner {... */\n    tag_13:\n      callvalue\n      dup1\n      iszero\n      tag_80\n      jumpi\n      0x00\n      dup1\n      revert\n    tag_80:\n      pop\n      tag_51\n      tag_82\n      jump\t// in\n        /* \"Lottery.sol\":2286:2888  function BuyTickets() public payable {... */\n    tag_14:\n      tag_51\n      tag_84\n      jump\t// in\n        /* \"Lottery.sol\":5180:5291  function RemainingTickets() public view returns (uint256) {... */\n    tag_15:\n      callvalue\n      dup1\n      iszero\n      tag_85\n      jumpi\n      0x00\n      dup1\n      revert\n    tag_85:\n      pop\n      tag_34\n      tag_87\n      jump\t// in\n        /* \"Lottery.sol\":4951:5048  function IsWinner() public view returns (bool) {... */\n    tag_16:\n      callvalue\n      dup1\n      iszero\n      tag_89\n      jumpi\n      0x00\n      dup1\n      revert\n    tag_89:\n      pop\n        /* \"Lottery.sol\":5025:5035  msg.sender */\n      caller\n        /* \"Lottery.sol\":4992:4996  bool */\n      0x00\n        /* \"Lottery.sol\":5016:5036  winnings[msg.sender] */\n      swap1\n      dup2\n      mstore\n        /* \"Lottery.sol\":5016:5024  winnings */\n      0x05\n        /* \"Lottery.sol\":5016:5036  winnings[msg.sender] */\n      0x20\n      mstore\n      0x40\n      swap1\n      keccak256\n      sload\n        /* \"Lottery.sol\":5016:5040  winnings[msg.sender] > 0 */\n      iszero\n      iszero\n        /* \"Lottery.sol\":4951:5048  function IsWinner() public view returns (bool) {... */\n      mload(0x40)\n        /* \"#utility.yul\":1463:1477   */\n      swap1\n      iszero\n        /* \"#utility.yul\":1456:1478   */\n      iszero\n        /* \"#utility.yul\":1438:1479   */\n      dup2\n      mstore\n        /* \"#utility.yul\":1426:1428   */\n      0x20\n        /* \"#utility.yul\":1411:1429   */\n      add\n        /* \"Lottery.sol\":4951:5048  function IsWinner() public view returns (bool) {... */\n      tag_36\n        /* \"#utility.yul\":1298:1485   */\n      jump\n        /* \"Lottery.sol\":234:274  uint256 public constant maxTickets = 100 */\n    tag_17:\n      callvalue\n      dup1\n      iszero\n      tag_94\n      jumpi\n      0x00\n      dup1\n      revert\n    tag_94:\n      pop\n      tag_34\n        /* \"Lottery.sol\":271:274  100 */\n      0x64\n        /* \"Lottery.sol\":234:274  uint256 public constant maxTickets = 100 */\n      dup2\n      jump\n        /* \"Lottery.sol\":4325:4667  function RefundAll() public {... */\n    tag_18:\n      callvalue\n      dup1\n      iszero\n      tag_98\n      jumpi\n      0x00\n      dup1\n      revert\n    tag_98:\n      pop\n      tag_51\n      tag_100\n      jump\t// in\n        /* \"Lottery.sol\":1710:2155  function getTicketsForAddress(address addr) public view returns (address[] memory)... */\n    tag_19:\n      callvalue\n      dup1\n      iszero\n      tag_101\n      jumpi\n      0x00\n      dup1\n      revert\n    tag_101:\n      pop\n      tag_61\n      tag_103\n      calldatasize\n      0x04\n      tag_104\n      jump\t// in\n    tag_103:\n      tag_105\n      jump\t// in\n        /* \"Lottery.sol\":642:684  uint256 public operatorTotalCommission = 0 */\n    tag_20:\n      callvalue\n      dup1\n      iszero\n      tag_107\n      jumpi\n      0x00\n      dup1\n      revert\n    tag_107:\n      pop\n      tag_34\n      sload(0x02)\n      dup2\n      jump\n        /* \"Lottery.sol\":5056:5172  function CurrentWinningReward() public view returns (uint256) {... */\n    tag_21:\n      callvalue\n      dup1\n      iszero\n      tag_111\n      jumpi\n      0x00\n      dup1\n      revert\n    tag_111:\n      pop\n      tag_34\n      tag_113\n      jump\t// in\n        /* \"Lottery.sol\":2163:2278  function getWinningsForAddress(address addr) public view returns (uint256) {... */\n    tag_22:\n      callvalue\n      dup1\n      iszero\n      tag_115\n      jumpi\n      0x00\n      dup1\n      revert\n    tag_115:\n      pop\n      tag_34\n      tag_117\n      calldatasize\n      0x04\n      tag_104\n      jump\t// in\n    tag_117:\n      sub(shl(0xa0, 0x01), 0x01)\n        /* \"Lottery.sol\":2256:2270  winnings[addr] */\n      and\n        /* \"Lottery.sol\":2229:2236  uint256 */\n      0x00\n        /* \"Lottery.sol\":2256:2270  winnings[addr] */\n      swap1\n      dup2\n      mstore\n        /* \"Lottery.sol\":2256:2264  winnings */\n      0x05\n        /* \"Lottery.sol\":2256:2270  winnings[addr] */\n      0x20\n      mstore\n      0x40\n      swap1\n      keccak256\n      sload\n      swap1\n        /* \"Lottery.sol\":2163:2278  function getWinningsForAddress(address addr) public view returns (uint256) {... */\n      jump\n        /* \"Lottery.sol\":870:913  mapping(address => uint256) public winnings */\n    tag_23:\n      callvalue\n      dup1\n      iszero\n      tag_120\n      jumpi\n      0x00\n      dup1\n      revert\n    tag_120:\n      pop\n      tag_34\n      tag_122\n      calldatasize\n      0x04\n      tag_104\n      jump\t// in\n    tag_122:\n      mstore(0x20, 0x05)\n      0x00\n      swap1\n      dup2\n      mstore\n      0x40\n      swap1\n      keccak256\n      sload\n      dup2\n      jump\n        /* \"Lottery.sol\":3642:3849  function restartDraw() public isOperator {... */\n    tag_24:\n      callvalue\n      dup1\n      iszero\n      tag_125\n      jumpi\n      0x00\n      dup1\n      revert\n    tag_125:\n      pop\n      tag_51\n      tag_127\n      jump\t// in\n        /* \"Lottery.sol\":723:748  address public lastWinner */\n    tag_25:\n      callvalue\n      dup1\n      iszero\n      tag_128\n      jumpi\n      0x00\n      dup1\n      revert\n    tag_128:\n      pop\n      sload(0x03)\n      tag_66\n      swap1\n      sub(shl(0xa0, 0x01), 0x01)\n      and\n      dup2\n      jump\n        /* \"Lottery.sol\":4675:4943  function WithdrawCommission() public isOperator {... */\n    tag_52:\n        /* \"Lottery.sol\":1150:1165  lotteryOperator */\n      and(sub(shl(0xa0, 0x01), 0x01), sload(0x01))\n        /* \"Lottery.sol\":1136:1146  msg.sender */\n      caller\n        /* \"Lottery.sol\":1136:1165  msg.sender == lotteryOperator */\n      eq\n        /* \"Lottery.sol\":1113:1228  require(... */\n      tag_134\n      jumpi\n      mload(0x40)\n      shl(0xe5, 0x461bcd)\n      dup2\n      mstore\n        /* \"#utility.yul\":2006:2008   */\n      0x20\n        /* \"Lottery.sol\":1113:1228  require(... */\n      0x04\n      dup3\n      add\n        /* \"#utility.yul\":1988:2009   */\n      mstore\n        /* \"#utility.yul\":2045:2047   */\n      0x22\n        /* \"#utility.yul\":2025:2043   */\n      0x24\n      dup3\n      add\n        /* \"#utility.yul\":2018:2048   */\n      mstore\n        /* \"#utility.yul\":2084:2118   */\n      0x43616c6c6572206973206e6f7420746865206c6f7474657279206f7065726174\n        /* \"#utility.yul\":2064:2082   */\n      0x44\n      dup3\n      add\n        /* \"#utility.yul\":2057:2119   */\n      mstore\n      shl(0xf1, 0x37b9)\n        /* \"#utility.yul\":2135:2153   */\n      0x64\n      dup3\n      add\n        /* \"#utility.yul\":2128:2160   */\n      mstore\n        /* \"#utility.yul\":2177:2196   */\n      0x84\n      add\n        /* \"Lottery.sol\":1113:1228  require(... */\n    tag_135:\n      mload(0x40)\n      dup1\n      swap2\n      sub\n      swap1\n      revert\n    tag_134:\n        /* \"Lottery.sol\":4823:4846  operatorTotalCommission */\n      0x02\n      dup1\n      sload\n        /* \"Lottery.sol\":4734:4758  address payable operator */\n      0x00\n        /* \"Lottery.sol\":4857:4884  operatorTotalCommission = 0 */\n      swap2\n      dup3\n      swap1\n      sstore\n        /* \"Lottery.sol\":4897:4935  operator.transfer(commission2Transfer) */\n      mload(0x40)\n        /* \"Lottery.sol\":4769:4779  msg.sender */\n      caller\n      swap3\n      dup4\n      swap2\n        /* \"Lottery.sol\":4897:4935  operator.transfer(commission2Transfer) */\n      dup4\n      iszero\n      0x08fc\n      mul\n      swap2\n        /* \"Lottery.sol\":4823:4846  operatorTotalCommission */\n      dup5\n      swap2\n        /* \"Lottery.sol\":4897:4935  operator.transfer(commission2Transfer) */\n      swap1\n      dup2\n        /* \"Lottery.sol\":4734:4758  address payable operator */\n      dup2\n        /* \"Lottery.sol\":4897:4935  operator.transfer(commission2Transfer) */\n      dup2\n        /* \"Lottery.sol\":4823:4846  operatorTotalCommission */\n      dup6\n        /* \"Lottery.sol\":4769:4779  msg.sender */\n      dup9\n        /* \"Lottery.sol\":4897:4935  operator.transfer(commission2Transfer) */\n      dup9\n      call\n      swap4\n      pop\n      pop\n      pop\n      pop\n      iszero\n      dup1\n      iszero\n      tag_139\n      jumpi\n      returndatasize\n      0x00\n      dup1\n      returndatacopy\n      revert(0x00, returndatasize)\n    tag_139:\n      pop\n        /* \"Lottery.sol\":4723:4943  {... */\n      pop\n      pop\n        /* \"Lottery.sol\":4675:4943  function WithdrawCommission() public isOperator {... */\n      jump\t// out\n        /* \"Lottery.sol\":2896:3634  function DrawWinnerTicket() public isOperator {... */\n    tag_59:\n        /* \"Lottery.sol\":1150:1165  lotteryOperator */\n      and(sub(shl(0xa0, 0x01), 0x01), sload(0x01))\n        /* \"Lottery.sol\":1136:1146  msg.sender */\n      caller\n        /* \"Lottery.sol\":1136:1165  msg.sender == lotteryOperator */\n      eq\n        /* \"Lottery.sol\":1113:1228  require(... */\n      tag_141\n      jumpi\n      mload(0x40)\n      shl(0xe5, 0x461bcd)\n      dup2\n      mstore\n        /* \"#utility.yul\":2006:2008   */\n      0x20\n        /* \"Lottery.sol\":1113:1228  require(... */\n      0x04\n      dup3\n      add\n        /* \"#utility.yul\":1988:2009   */\n      mstore\n        /* \"#utility.yul\":2045:2047   */\n      0x22\n        /* \"#utility.yul\":2025:2043   */\n      0x24\n      dup3\n      add\n        /* \"#utility.yul\":2018:2048   */\n      mstore\n        /* \"#utility.yul\":2084:2118   */\n      0x43616c6c6572206973206e6f7420746865206c6f7474657279206f7065726174\n        /* \"#utility.yul\":2064:2082   */\n      0x44\n      dup3\n      add\n        /* \"#utility.yul\":2057:2119   */\n      mstore\n      shl(0xf1, 0x37b9)\n        /* \"#utility.yul\":2135:2153   */\n      0x64\n      dup3\n      add\n        /* \"#utility.yul\":2128:2160   */\n      mstore\n        /* \"#utility.yul\":2177:2196   */\n      0x84\n      add\n        /* \"Lottery.sol\":1113:1228  require(... */\n      tag_135\n        /* \"#utility.yul\":1804:2202   */\n      jump\n        /* \"Lottery.sol\":1113:1228  require(... */\n    tag_141:\n        /* \"Lottery.sol\":2961:2968  tickets */\n      0x06\n        /* \"Lottery.sol\":2961:2975  tickets.length */\n      sload\n        /* \"Lottery.sol\":2953:3009  require(tickets.length > 0, \"No tickets were purchased\") */\n      tag_144\n      jumpi\n      mload(0x40)\n      shl(0xe5, 0x461bcd)\n      dup2\n      mstore\n        /* \"#utility.yul\":2409:2411   */\n      0x20\n        /* \"Lottery.sol\":2953:3009  require(tickets.length > 0, \"No tickets were purchased\") */\n      0x04\n      dup3\n      add\n        /* \"#utility.yul\":2391:2412   */\n      mstore\n        /* \"#utility.yul\":2448:2450   */\n      0x19\n        /* \"#utility.yul\":2428:2446   */\n      0x24\n      dup3\n      add\n        /* \"#utility.yul\":2421:2451   */\n      mstore\n        /* \"#utility.yul\":2487:2514   */\n      0x4e6f207469636b65747320776572652070757263686173656400000000000000\n        /* \"#utility.yul\":2467:2485   */\n      0x44\n      dup3\n      add\n        /* \"#utility.yul\":2460:2515   */\n      mstore\n        /* \"#utility.yul\":2532:2550   */\n      0x64\n      add\n        /* \"Lottery.sol\":2953:3009  require(tickets.length > 0, \"No tickets were purchased\") */\n      tag_135\n        /* \"#utility.yul\":2207:2556   */\n      jump\n        /* \"Lottery.sol\":2953:3009  require(tickets.length > 0, \"No tickets were purchased\") */\n    tag_144:\n        /* \"Lottery.sol\":3067:3074  tickets */\n      0x06\n        /* \"Lottery.sol\":3067:3081  tickets.length */\n      sload\n        /* \"Lottery.sol\":3022:3039  bytes32 blockHash */\n      0x00\n      swap1\n        /* \"Lottery.sol\":3052:3081  block.number - tickets.length */\n      tag_147\n      swap1\n        /* \"Lottery.sol\":3052:3064  block.number */\n      number\n        /* \"Lottery.sol\":3052:3081  block.number - tickets.length */\n      tag_148\n      jump\t// in\n    tag_147:\n        /* \"Lottery.sol\":3148:3192  abi.encodePacked(block.timestamp, blockHash) */\n      0x40\n      dup1\n      mload\n        /* \"Lottery.sol\":3165:3180  block.timestamp */\n      timestamp\n        /* \"Lottery.sol\":3148:3192  abi.encodePacked(block.timestamp, blockHash) */\n      0x20\n      dup3\n      add\n        /* \"#utility.yul\":2983:3002   */\n      mstore\n        /* \"Lottery.sol\":3042:3082  blockhash(block.number - tickets.length) */\n      swap2\n      blockhash\n        /* \"#utility.yul\":3018:3030   */\n      swap1\n      dup3\n      add\n        /* \"#utility.yul\":3011:3039   */\n      dup2\n      swap1\n      mstore\n        /* \"Lottery.sol\":3042:3082  blockhash(block.number - tickets.length) */\n      swap2\n      pop\n        /* \"Lottery.sol\":3093:3113  uint256 randomNumber */\n      0x00\n      swap1\n        /* \"#utility.yul\":3055:3067   */\n      0x60\n      add\n        /* \"Lottery.sol\":3148:3192  abi.encodePacked(block.timestamp, blockHash) */\n      0x40\n      dup1\n      mload\n      not(0x1f)\n      dup2\n      dup5\n      sub\n      add\n      dup2\n      mstore\n      swap2\n      swap1\n      mstore\n        /* \"Lottery.sol\":3138:3193  keccak256(abi.encodePacked(block.timestamp, blockHash)) */\n      dup1\n      mload\n        /* \"Lottery.sol\":3148:3192  abi.encodePacked(block.timestamp, blockHash) */\n      0x20\n        /* \"Lottery.sol\":3138:3193  keccak256(abi.encodePacked(block.timestamp, blockHash)) */\n      swap1\n      swap2\n      add\n      keccak256\n        /* \"Lottery.sol\":3254:3261  tickets */\n      0x06\n        /* \"Lottery.sol\":3254:3268  tickets.length */\n      sload\n        /* \"Lottery.sol\":3138:3193  keccak256(abi.encodePacked(block.timestamp, blockHash)) */\n      swap1\n      swap2\n      pop\n        /* \"Lottery.sol\":3116:3204  uint256(... */\n      0x00\n      swap1\n        /* \"Lottery.sol\":3239:3268  randomNumber % tickets.length */\n      tag_151\n      swap1\n        /* \"Lottery.sol\":3138:3193  keccak256(abi.encodePacked(block.timestamp, blockHash)) */\n      dup4\n        /* \"Lottery.sol\":3239:3268  randomNumber % tickets.length */\n      tag_152\n      jump\t// in\n    tag_151:\n        /* \"Lottery.sol\":3215:3268  uint256 winningTicket = randomNumber % tickets.length */\n      swap1\n      pop\n        /* \"Lottery.sol\":3281:3295  address winner */\n      0x00\n        /* \"Lottery.sol\":3298:3305  tickets */\n      0x06\n        /* \"Lottery.sol\":3306:3319  winningTicket */\n      dup3\n        /* \"Lottery.sol\":3298:3320  tickets[winningTicket] */\n      dup2\n      sload\n      dup2\n      lt\n      tag_154\n      jumpi\n      tag_154\n      tag_155\n      jump\t// in\n    tag_154:\n      0x00\n      swap2\n      dup3\n      mstore\n      0x20\n      swap1\n      swap2\n      keccak256\n      add\n      sload\n        /* \"Lottery.sol\":3331:3341  lastWinner */\n      0x03\n        /* \"Lottery.sol\":3331:3350  lastWinner = winner */\n      dup1\n      sload\n      not(0xffffffffffffffffffffffffffffffffffffffff)\n      and\n      sub(shl(0xa0, 0x01), 0x01)\n        /* \"Lottery.sol\":3298:3320  tickets[winningTicket] */\n      swap1\n      swap3\n      and\n        /* \"Lottery.sol\":3331:3350  lastWinner = winner */\n      swap2\n      dup3\n      or\n      swap1\n      sstore\n        /* \"Lottery.sol\":3298:3320  tickets[winningTicket] */\n      swap1\n      pop\n        /* \"Lottery.sol\":3400:3430  ticketPrice - ticketCommission */\n      tag_157\n        /* \"Lottery.sol\":355:366  0.001 ether */\n      0x038d7ea4c68000\n        /* \"Lottery.sol\":217:227  0.01 ether */\n      0x2386f26fc10000\n        /* \"Lottery.sol\":3400:3430  ticketPrice - ticketCommission */\n      tag_148\n      jump\t// in\n    tag_157:\n        /* \"Lottery.sol\":3382:3389  tickets */\n      0x06\n        /* \"Lottery.sol\":3382:3396  tickets.length */\n      sload\n        /* \"Lottery.sol\":3382:3431  tickets.length * (ticketPrice - ticketCommission) */\n      tag_158\n      swap2\n      swap1\n      tag_159\n      jump\t// in\n    tag_158:\n      sub(shl(0xa0, 0x01), 0x01)\n        /* \"Lottery.sol\":3361:3377  winnings[winner] */\n      dup3\n      and\n      0x00\n      swap1\n      dup2\n      mstore\n        /* \"Lottery.sol\":3361:3369  winnings */\n      0x05\n        /* \"Lottery.sol\":3361:3377  winnings[winner] */\n      0x20\n      mstore\n      0x40\n      dup2\n      keccak256\n        /* \"Lottery.sol\":3361:3432  winnings[winner] += (tickets.length * (ticketPrice - ticketCommission)) */\n      dup1\n      sload\n        /* \"Lottery.sol\":3361:3377  winnings[winner] */\n      swap1\n      swap2\n      swap1\n        /* \"Lottery.sol\":3361:3432  winnings[winner] += (tickets.length * (ticketPrice - ticketCommission)) */\n      tag_160\n      swap1\n      dup5\n      swap1\n      tag_161\n      jump\t// in\n    tag_160:\n      swap1\n      swap2\n      sstore\n      pop\n      pop\n      sub(shl(0xa0, 0x01), 0x01)\n        /* \"Lottery.sol\":3462:3478  winnings[winner] */\n      dup2\n      and\n      0x00\n      swap1\n      dup2\n      mstore\n        /* \"Lottery.sol\":3462:3470  winnings */\n      0x05\n        /* \"Lottery.sol\":3462:3478  winnings[winner] */\n      0x20\n      mstore\n      0x40\n      swap1\n      keccak256\n      sload\n        /* \"Lottery.sol\":3443:3459  lastWinnerAmount */\n      0x04\n        /* \"Lottery.sol\":3443:3478  lastWinnerAmount = winnings[winner] */\n      sstore\n        /* \"Lottery.sol\":3517:3524  tickets */\n      0x06\n        /* \"Lottery.sol\":3517:3531  tickets.length */\n      sload\n        /* \"Lottery.sol\":3517:3550  tickets.length * ticketCommission */\n      tag_162\n      swap1\n        /* \"Lottery.sol\":355:366  0.001 ether */\n      0x038d7ea4c68000\n      swap1\n        /* \"Lottery.sol\":3517:3550  tickets.length * ticketCommission */\n      tag_159\n      jump\t// in\n    tag_162:\n        /* \"Lottery.sol\":3489:3512  operatorTotalCommission */\n      0x02\n      0x00\n        /* \"Lottery.sol\":3489:3551  operatorTotalCommission += (tickets.length * ticketCommission) */\n      dup3\n      dup3\n      sload\n      tag_163\n      swap2\n      swap1\n      tag_161\n      jump\t// in\n    tag_163:\n      swap1\n      swap2\n      sstore\n      pop\n        /* \"Lottery.sol\":3562:3576  delete tickets */\n      tag_164\n      swap1\n      pop\n        /* \"Lottery.sol\":3569:3576  tickets */\n      0x06\n      0x00\n        /* \"Lottery.sol\":3562:3576  delete tickets */\n      tag_165\n      jump\t// in\n    tag_164:\n        /* \"Lottery.sol\":3600:3626  block.timestamp + duration */\n      tag_166\n        /* \"Lottery.sol\":432:442  30 minutes */\n      0x0708\n        /* \"Lottery.sol\":3600:3615  block.timestamp */\n      timestamp\n        /* \"Lottery.sol\":3600:3626  block.timestamp + duration */\n      tag_161\n      jump\t// in\n    tag_166:\n        /* \"Lottery.sol\":3587:3597  expiration */\n      0x00\n        /* \"Lottery.sol\":3587:3626  expiration = block.timestamp + duration */\n      sstore\n      pop\n      pop\n      pop\n      pop\n        /* \"Lottery.sol\":2896:3634  function DrawWinnerTicket() public isOperator {... */\n      jump\t// out\n        /* \"Lottery.sol\":1558:1652  function getTickets() public view returns (address[] memory) {... */\n    tag_62:\n        /* \"Lottery.sol\":1601:1617  address[] memory */\n      0x60\n        /* \"Lottery.sol\":1637:1644  tickets */\n      0x06\n        /* \"Lottery.sol\":1630:1644  return tickets */\n      dup1\n      sload\n      dup1\n      0x20\n      mul\n      0x20\n      add\n      mload(0x40)\n      swap1\n      dup2\n      add\n      0x40\n      mstore\n      dup1\n      swap3\n      swap2\n      swap1\n      dup2\n      dup2\n      mstore\n      0x20\n      add\n      dup3\n      dup1\n      sload\n      dup1\n      iszero\n      tag_168\n      jumpi\n      0x20\n      mul\n      dup3\n      add\n      swap2\n      swap1\n      0x00\n      mstore\n      keccak256(0x00, 0x20)\n      swap1\n    tag_169:\n      dup2\n      sload\n      sub(shl(0xa0, 0x01), 0x01)\n      and\n      dup2\n      mstore\n      0x01\n      swap1\n      swap2\n      add\n      swap1\n      0x20\n      add\n      dup1\n      dup4\n      gt\n      tag_169\n      jumpi\n    tag_168:\n      pop\n      pop\n      pop\n      pop\n      pop\n      swap1\n      pop\n        /* \"Lottery.sol\":1558:1652  function getTickets() public view returns (address[] memory) {... */\n      swap1\n      jump\t// out\n        /* \"Lottery.sol\":958:982  address[] public tickets */\n    tag_69:\n      0x06\n      dup2\n      dup2\n      sload\n      dup2\n      lt\n      tag_170\n      jumpi\n      0x00\n      dup1\n      revert\n    tag_170:\n      0x00\n      swap2\n      dup3\n      mstore\n      0x20\n      swap1\n      swap2\n      keccak256\n      add\n      sload\n      sub(shl(0xa0, 0x01), 0x01)\n      and\n      swap1\n      pop\n      dup2\n      jump\t// out\n        /* \"Lottery.sol\":4079:4317  function WithdrawWinnings() public isWinner {... */\n    tag_82:\n        /* \"Lottery.sol\":5025:5035  msg.sender */\n      caller\n        /* \"Lottery.sol\":4992:4996  bool */\n      0x00\n        /* \"Lottery.sol\":5016:5036  winnings[msg.sender] */\n      swap1\n      dup2\n      mstore\n        /* \"Lottery.sol\":5016:5024  winnings */\n      0x05\n        /* \"Lottery.sol\":5016:5036  winnings[msg.sender] */\n      0x20\n      mstore\n      0x40\n      swap1\n      keccak256\n      sload\n        /* \"Lottery.sol\":1335:1380  require(IsWinner(), \"Caller is not a winner\") */\n      tag_174\n      jumpi\n      mload(0x40)\n      shl(0xe5, 0x461bcd)\n      dup2\n      mstore\n        /* \"#utility.yul\":3964:3966   */\n      0x20\n        /* \"Lottery.sol\":1335:1380  require(IsWinner(), \"Caller is not a winner\") */\n      0x04\n      dup3\n      add\n        /* \"#utility.yul\":3946:3967   */\n      mstore\n        /* \"#utility.yul\":4003:4005   */\n      0x16\n        /* \"#utility.yul\":3983:4001   */\n      0x24\n      dup3\n      add\n        /* \"#utility.yul\":3976:4006   */\n      mstore\n        /* \"#utility.yul\":4042:4066   */\n      0x43616c6c6572206973206e6f7420612077696e6e657200000000000000000000\n        /* \"#utility.yul\":4022:4040   */\n      0x44\n      dup3\n      add\n        /* \"#utility.yul\":4015:4067   */\n      mstore\n        /* \"#utility.yul\":4084:4102   */\n      0x64\n      add\n        /* \"Lottery.sol\":1335:1380  require(IsWinner(), \"Caller is not a winner\") */\n      tag_135\n        /* \"#utility.yul\":3762:4108   */\n      jump\n        /* \"Lottery.sol\":1335:1380  require(IsWinner(), \"Caller is not a winner\") */\n    tag_174:\n        /* \"Lottery.sol\":4167:4177  msg.sender */\n      caller\n        /* \"Lottery.sol\":4134:4156  address payable winner */\n      0x00\n        /* \"Lottery.sol\":4217:4233  winnings[winner] */\n      dup2\n      dup2\n      mstore\n        /* \"Lottery.sol\":4217:4225  winnings */\n      0x05\n        /* \"Lottery.sol\":4217:4233  winnings[winner] */\n      0x20\n      mstore\n      0x40\n      dup1\n      dup3\n      keccak256\n      dup1\n      sload\n        /* \"Lottery.sol\":4244:4264  winnings[winner] = 0 */\n      swap1\n      dup4\n      swap1\n      sstore\n        /* \"Lottery.sol\":4277:4309  winner.transfer(reward2Transfer) */\n      swap1\n      mload\n        /* \"Lottery.sol\":4217:4233  winnings[winner] */\n      swap1\n      swap2\n        /* \"Lottery.sol\":4167:4177  msg.sender */\n      dup4\n      swap2\n        /* \"Lottery.sol\":4277:4309  winner.transfer(reward2Transfer) */\n      dup4\n      iszero\n      0x08fc\n      mul\n      swap2\n        /* \"Lottery.sol\":4217:4233  winnings[winner] */\n      dup5\n      swap2\n        /* \"Lottery.sol\":4277:4309  winner.transfer(reward2Transfer) */\n      swap1\n      dup2\n        /* \"Lottery.sol\":4134:4156  address payable winner */\n      dup2\n        /* \"Lottery.sol\":4277:4309  winner.transfer(reward2Transfer) */\n      dup2\n        /* \"Lottery.sol\":4217:4233  winnings[winner] */\n      dup6\n        /* \"Lottery.sol\":4167:4177  msg.sender */\n      dup9\n        /* \"Lottery.sol\":4277:4309  winner.transfer(reward2Transfer) */\n      dup9\n      call\n      swap4\n      pop\n      pop\n      pop\n      pop\n      iszero\n      dup1\n      iszero\n      tag_139\n      jumpi\n      returndatasize\n      0x00\n      dup1\n      returndatacopy\n      revert(0x00, returndatasize)\n        /* \"Lottery.sol\":2286:2888  function BuyTickets() public payable {... */\n    tag_84:\n        /* \"Lottery.sol\":2356:2379  msg.value % ticketPrice */\n      tag_181\n        /* \"Lottery.sol\":217:227  0.01 ether */\n      0x2386f26fc10000\n        /* \"Lottery.sol\":2356:2365  msg.value */\n      callvalue\n        /* \"Lottery.sol\":2356:2379  msg.value % ticketPrice */\n      tag_152\n      jump\t// in\n    tag_181:\n        /* \"Lottery.sol\":2356:2384  msg.value % ticketPrice == 0 */\n      iszero\n        /* \"Lottery.sol\":2482:2511  Strings.toString(ticketPrice) */\n      tag_182\n        /* \"Lottery.sol\":217:227  0.01 ether */\n      0x2386f26fc10000\n        /* \"Lottery.sol\":2482:2498  Strings.toString */\n      tag_183\n        /* \"Lottery.sol\":2482:2511  Strings.toString(ticketPrice) */\n      jump\t// in\n    tag_182:\n        /* \"Lottery.sol\":2399:2553  string.concat(... */\n      add(0x20, mload(0x40))\n      tag_184\n      swap2\n      swap1\n      tag_185\n      jump\t// in\n    tag_184:\n      mload(0x40)\n      0x20\n      dup2\n      dup4\n      sub\n      sub\n      dup2\n      mstore\n      swap1\n      0x40\n      mstore\n        /* \"Lottery.sol\":2334:2564  require(... */\n      swap1\n      tag_186\n      jumpi\n      mload(0x40)\n      shl(0xe5, 0x461bcd)\n      dup2\n      mstore\n      0x04\n      add\n      tag_135\n      swap2\n      swap1\n      tag_188\n      jump\t// in\n    tag_186:\n      pop\n        /* \"Lottery.sol\":2575:2600  uint256 numOfTicketsToBuy */\n      0x00\n        /* \"Lottery.sol\":2603:2626  msg.value / ticketPrice */\n      tag_189\n        /* \"Lottery.sol\":217:227  0.01 ether */\n      0x2386f26fc10000\n        /* \"Lottery.sol\":2603:2612  msg.value */\n      callvalue\n        /* \"Lottery.sol\":2603:2626  msg.value / ticketPrice */\n      tag_190\n      jump\t// in\n    tag_189:\n        /* \"Lottery.sol\":2575:2626  uint256 numOfTicketsToBuy = msg.value / ticketPrice */\n      swap1\n      pop\n        /* \"Lottery.sol\":2682:2700  RemainingTickets() */\n      tag_191\n        /* \"Lottery.sol\":2682:2698  RemainingTickets */\n      tag_87\n        /* \"Lottery.sol\":2682:2700  RemainingTickets() */\n      jump\t// in\n    tag_191:\n        /* \"Lottery.sol\":2661:2678  numOfTicketsToBuy */\n      dup2\n        /* \"Lottery.sol\":2661:2700  numOfTicketsToBuy <= RemainingTickets() */\n      gt\n      iszero\n        /* \"Lottery.sol\":2639:2757  require(... */\n      tag_192\n      jumpi\n      mload(0x40)\n      shl(0xe5, 0x461bcd)\n      dup2\n      mstore\n        /* \"#utility.yul\":5702:5704   */\n      0x20\n        /* \"Lottery.sol\":2639:2757  require(... */\n      0x04\n      dup3\n      add\n        /* \"#utility.yul\":5684:5705   */\n      mstore\n        /* \"#utility.yul\":5741:5743   */\n      0x1d\n        /* \"#utility.yul\":5721:5739   */\n      0x24\n      dup3\n      add\n        /* \"#utility.yul\":5714:5744   */\n      mstore\n        /* \"#utility.yul\":5780:5811   */\n      0x4e6f7420656e6f756768207469636b65747320617661696c61626c652e000000\n        /* \"#utility.yul\":5760:5778   */\n      0x44\n      dup3\n      add\n        /* \"#utility.yul\":5753:5812   */\n      mstore\n        /* \"#utility.yul\":5829:5847   */\n      0x64\n      add\n        /* \"Lottery.sol\":2639:2757  require(... */\n      tag_135\n        /* \"#utility.yul\":5500:5853   */\n      jump\n        /* \"Lottery.sol\":2639:2757  require(... */\n    tag_192:\n        /* \"Lottery.sol\":2787:2796  uint256 i */\n      0x00\n        /* \"Lottery.sol\":2782:2881  for (uint256 i = 0; i < numOfTicketsToBuy; i++) {... */\n    tag_195:\n        /* \"Lottery.sol\":2806:2823  numOfTicketsToBuy */\n      dup2\n        /* \"Lottery.sol\":2802:2803  i */\n      dup2\n        /* \"Lottery.sol\":2802:2823  i < numOfTicketsToBuy */\n      lt\n        /* \"Lottery.sol\":2782:2881  for (uint256 i = 0; i < numOfTicketsToBuy; i++) {... */\n      iszero\n      tag_196\n      jumpi\n        /* \"Lottery.sol\":2845:2852  tickets */\n      0x06\n        /* \"Lottery.sol\":2845:2869  tickets.push(msg.sender) */\n      dup1\n      sload\n      0x01\n      dup2\n      add\n      dup3\n      sstore\n      0x00\n      swap2\n      swap1\n      swap2\n      mstore\n      0xf652222313e28459528d920b65115c16c04f3efc82aaedc97be59f3f377c0d3f\n      add\n      dup1\n      sload\n      not(0xffffffffffffffffffffffffffffffffffffffff)\n      and\n        /* \"Lottery.sol\":2858:2868  msg.sender */\n      caller\n        /* \"Lottery.sol\":2845:2869  tickets.push(msg.sender) */\n      or\n      swap1\n      sstore\n        /* \"Lottery.sol\":2825:2828  i++ */\n      dup1\n      tag_199\n      dup2\n      tag_200\n      jump\t// in\n    tag_199:\n      swap2\n      pop\n      pop\n        /* \"Lottery.sol\":2782:2881  for (uint256 i = 0; i < numOfTicketsToBuy; i++) {... */\n      jump(tag_195)\n    tag_196:\n      pop\n        /* \"Lottery.sol\":2323:2888  {... */\n      pop\n        /* \"Lottery.sol\":2286:2888  function BuyTickets() public payable {... */\n      jump\t// out\n        /* \"Lottery.sol\":5180:5291  function RemainingTickets() public view returns (uint256) {... */\n    tag_87:\n        /* \"Lottery.sol\":5269:5276  tickets */\n      0x06\n        /* \"Lottery.sol\":5269:5283  tickets.length */\n      sload\n        /* \"Lottery.sol\":5229:5236  uint256 */\n      0x00\n      swap1\n        /* \"Lottery.sol\":5256:5283  maxTickets - tickets.length */\n      tag_202\n      swap1\n        /* \"Lottery.sol\":271:274  100 */\n      0x64\n        /* \"Lottery.sol\":5256:5283  maxTickets - tickets.length */\n      tag_148\n      jump\t// in\n    tag_202:\n        /* \"Lottery.sol\":5249:5283  return maxTickets - tickets.length */\n      swap1\n      pop\n        /* \"Lottery.sol\":5180:5291  function RemainingTickets() public view returns (uint256) {... */\n      swap1\n      jump\t// out\n        /* \"Lottery.sol\":4325:4667  function RefundAll() public {... */\n    tag_100:\n        /* \"Lottery.sol\":4391:4401  expiration */\n      sload(0x00)\n        /* \"Lottery.sol\":4372:4387  block.timestamp */\n      timestamp\n        /* \"Lottery.sol\":4372:4401  block.timestamp >= expiration */\n      lt\n      iszero\n        /* \"Lottery.sol\":4364:4433  require(block.timestamp >= expiration, \"the lottery not expired yet\") */\n      tag_205\n      jumpi\n      mload(0x40)\n      shl(0xe5, 0x461bcd)\n      dup2\n      mstore\n        /* \"#utility.yul\":6200:6202   */\n      0x20\n        /* \"Lottery.sol\":4364:4433  require(block.timestamp >= expiration, \"the lottery not expired yet\") */\n      0x04\n      dup3\n      add\n        /* \"#utility.yul\":6182:6203   */\n      mstore\n        /* \"#utility.yul\":6239:6241   */\n      0x1b\n        /* \"#utility.yul\":6219:6237   */\n      0x24\n      dup3\n      add\n        /* \"#utility.yul\":6212:6242   */\n      mstore\n        /* \"#utility.yul\":6278:6307   */\n      0x746865206c6f7474657279206e6f742065787069726564207965740000000000\n        /* \"#utility.yul\":6258:6276   */\n      0x44\n      dup3\n      add\n        /* \"#utility.yul\":6251:6308   */\n      mstore\n        /* \"#utility.yul\":6325:6343   */\n      0x64\n      add\n        /* \"Lottery.sol\":4364:4433  require(block.timestamp >= expiration, \"the lottery not expired yet\") */\n      tag_135\n        /* \"#utility.yul\":5998:6349   */\n      jump\n        /* \"Lottery.sol\":4364:4433  require(block.timestamp >= expiration, \"the lottery not expired yet\") */\n    tag_205:\n        /* \"Lottery.sol\":4451:4460  uint256 i */\n      0x00\n        /* \"Lottery.sol\":4446:4635  for (uint256 i = 0; i < tickets.length; i++) {... */\n    tag_208:\n        /* \"Lottery.sol\":4470:4477  tickets */\n      0x06\n        /* \"Lottery.sol\":4470:4484  tickets.length */\n      sload\n        /* \"Lottery.sol\":4466:4484  i < tickets.length */\n      dup2\n      lt\n        /* \"Lottery.sol\":4446:4635  for (uint256 i = 0; i < tickets.length; i++) {... */\n      iszero\n      tag_209\n      jumpi\n        /* \"Lottery.sol\":4506:4524  address payable to */\n      0x00\n        /* \"Lottery.sol\":4535:4542  tickets */\n      0x06\n        /* \"Lottery.sol\":4543:4544  i */\n      dup3\n        /* \"Lottery.sol\":4535:4545  tickets[i] */\n      dup2\n      sload\n      dup2\n      lt\n      tag_212\n      jumpi\n      tag_212\n      tag_155\n      jump\t// in\n    tag_212:\n      0x00\n      swap2\n      dup3\n      mstore\n      0x20\n      dup3\n      keccak256\n      add\n      sload\n        /* \"Lottery.sol\":4561:4568  tickets */\n      0x06\n        /* \"Lottery.sol\":4561:4571  tickets[i] */\n      dup1\n      sload\n      sub(shl(0xa0, 0x01), 0x01)\n        /* \"Lottery.sol\":4535:4545  tickets[i] */\n      swap1\n      swap3\n      and\n      swap4\n      pop\n        /* \"Lottery.sol\":4561:4568  tickets */\n      swap1\n        /* \"Lottery.sol\":4569:4570  i */\n      dup5\n      swap1\n        /* \"Lottery.sol\":4561:4571  tickets[i] */\n      dup2\n      lt\n      tag_215\n      jumpi\n      tag_215\n      tag_155\n      jump\t// in\n    tag_215:\n      0x00\n      swap2\n      dup3\n      mstore\n      0x20\n      dup3\n      keccak256\n      add\n        /* \"Lottery.sol\":4561:4584  tickets[i] = address(0) */\n      dup1\n      sload\n      not(0xffffffffffffffffffffffffffffffffffffffff)\n      and\n      sub(shl(0xa0, 0x01), 0x01)\n      swap4\n      dup5\n      and\n      or\n      swap1\n      sstore\n        /* \"Lottery.sol\":4599:4623  to.transfer(ticketPrice) */\n      mload(0x40)\n        /* \"Lottery.sol\":4599:4610  to.transfer */\n      swap2\n      dup4\n      and\n      swap2\n        /* \"Lottery.sol\":217:227  0.01 ether */\n      0x2386f26fc10000\n      swap1\n        /* \"Lottery.sol\":4561:4571  tickets[i] */\n      dup3\n        /* \"Lottery.sol\":4599:4623  to.transfer(ticketPrice) */\n      dup2\n        /* \"Lottery.sol\":4561:4571  tickets[i] */\n      dup2\n        /* \"Lottery.sol\":4599:4623  to.transfer(ticketPrice) */\n      dup2\n        /* \"Lottery.sol\":217:227  0.01 ether */\n      dup6\n        /* \"Lottery.sol\":4599:4610  to.transfer */\n      dup9\n        /* \"Lottery.sol\":4561:4571  tickets[i] */\n      dup4\n        /* \"Lottery.sol\":4599:4623  to.transfer(ticketPrice) */\n      call\n      swap4\n      pop\n      pop\n      pop\n      pop\n      iszero\n      dup1\n      iszero\n      tag_218\n      jumpi\n      returndatasize\n      0x00\n      dup1\n      returndatacopy\n      revert(0x00, returndatasize)\n    tag_218:\n      pop\n        /* \"Lottery.sol\":4491:4635  {... */\n      pop\n        /* \"Lottery.sol\":4486:4489  i++ */\n      dup1\n      dup1\n      tag_219\n      swap1\n      tag_200\n      jump\t// in\n    tag_219:\n      swap2\n      pop\n      pop\n        /* \"Lottery.sol\":4446:4635  for (uint256 i = 0; i < tickets.length; i++) {... */\n      jump(tag_208)\n    tag_209:\n      pop\n        /* \"Lottery.sol\":4645:4659  delete tickets */\n      tag_220\n        /* \"Lottery.sol\":4652:4659  tickets */\n      0x06\n      0x00\n        /* \"Lottery.sol\":4645:4659  delete tickets */\n      tag_165\n      jump\t// in\n    tag_220:\n        /* \"Lottery.sol\":4325:4667  function RefundAll() public {... */\n      jump\t// out\n        /* \"Lottery.sol\":1710:2155  function getTicketsForAddress(address addr) public view returns (address[] memory)... */\n    tag_105:\n        /* \"Lottery.sol\":1860:1867  tickets */\n      0x06\n        /* \"Lottery.sol\":1860:1874  tickets.length */\n      sload\n        /* \"Lottery.sol\":1775:1791  address[] memory */\n      0x60\n      swap1\n        /* \"Lottery.sol\":1809:1843  address[] memory ticketsForAddress */\n      0x00\n      swap1\n        /* \"Lottery.sol\":1846:1875  new address[](tickets.length) */\n      0xffffffffffffffff\n      dup2\n      gt\n      iszero\n      tag_223\n      jumpi\n      tag_223\n      tag_224\n      jump\t// in\n    tag_223:\n      mload(0x40)\n      swap1\n      dup1\n      dup3\n      mstore\n      dup1\n      0x20\n      mul\n      0x20\n      add\n      dup3\n      add\n      0x40\n      mstore\n      dup1\n      iszero\n      tag_225\n      jumpi\n      dup2\n      0x20\n      add\n      0x20\n      dup3\n      mul\n      dup1\n      calldatasize\n      dup4\n      calldatacopy\n      add\n      swap1\n      pop\n    tag_225:\n      pop\n        /* \"Lottery.sol\":1809:1875  address[] memory ticketsForAddress = new address[](tickets.length) */\n      swap1\n      pop\n        /* \"Lottery.sol\":1886:1901  uint256 counter */\n      0x00\n        /* \"Lottery.sol\":1921:1930  uint256 i */\n      dup1\n        /* \"Lottery.sol\":1916:2113  for (uint256 i = 0; i < tickets.length; i++) {... */\n    tag_226:\n        /* \"Lottery.sol\":1940:1947  tickets */\n      0x06\n        /* \"Lottery.sol\":1940:1954  tickets.length */\n      sload\n        /* \"Lottery.sol\":1936:1954  i < tickets.length */\n      dup2\n      lt\n        /* \"Lottery.sol\":1916:2113  for (uint256 i = 0; i < tickets.length; i++) {... */\n      iszero\n      tag_227\n      jumpi\n        /* \"Lottery.sol\":1994:1998  addr */\n      dup5\n      sub(shl(0xa0, 0x01), 0x01)\n        /* \"Lottery.sol\":1980:1998  tickets[i] == addr */\n      and\n        /* \"Lottery.sol\":1980:1987  tickets */\n      0x06\n        /* \"Lottery.sol\":1988:1989  i */\n      dup3\n        /* \"Lottery.sol\":1980:1990  tickets[i] */\n      dup2\n      sload\n      dup2\n      lt\n      tag_230\n      jumpi\n      tag_230\n      tag_155\n      jump\t// in\n    tag_230:\n      0x00\n      swap2\n      dup3\n      mstore\n      0x20\n      swap1\n      swap2\n      keccak256\n      add\n      sload\n      sub(shl(0xa0, 0x01), 0x01)\n      and\n        /* \"Lottery.sol\":1980:1998  tickets[i] == addr */\n      sub\n        /* \"Lottery.sol\":1976:2102  if (tickets[i] == addr) {... */\n      tag_232\n      jumpi\n        /* \"Lottery.sol\":2048:2055  tickets */\n      0x06\n        /* \"Lottery.sol\":2056:2057  i */\n      dup2\n        /* \"Lottery.sol\":2048:2058  tickets[i] */\n      dup2\n      sload\n      dup2\n      lt\n      tag_234\n      jumpi\n      tag_234\n      tag_155\n      jump\t// in\n    tag_234:\n      swap1\n      0x00\n      mstore\n      keccak256(0x00, 0x20)\n      add\n      0x00\n      swap1\n      sload\n      swap1\n      0x0100\n      exp\n      swap1\n      div\n      sub(shl(0xa0, 0x01), 0x01)\n      and\n        /* \"Lottery.sol\":2019:2036  ticketsForAddress */\n      dup4\n        /* \"Lottery.sol\":2037:2044  counter */\n      dup4\n        /* \"Lottery.sol\":2019:2045  ticketsForAddress[counter] */\n      dup2\n      mload\n      dup2\n      lt\n      tag_237\n      jumpi\n      tag_237\n      tag_155\n      jump\t// in\n    tag_237:\n      sub(shl(0xa0, 0x01), 0x01)\n        /* \"Lottery.sol\":2019:2058  ticketsForAddress[counter] = tickets[i] */\n      swap1\n      swap3\n      and\n        /* \"Lottery.sol\":2019:2045  ticketsForAddress[counter] */\n      0x20\n      swap3\n      dup4\n      mul\n      swap2\n      swap1\n      swap2\n      add\n      swap1\n      swap2\n      add\n        /* \"Lottery.sol\":2019:2058  ticketsForAddress[counter] = tickets[i] */\n      mstore\n        /* \"Lottery.sol\":2077:2086  counter++ */\n      dup2\n      tag_238\n      dup2\n      tag_200\n      jump\t// in\n    tag_238:\n      swap3\n      pop\n      pop\n        /* \"Lottery.sol\":1976:2102  if (tickets[i] == addr) {... */\n    tag_232:\n        /* \"Lottery.sol\":1956:1959  i++ */\n      dup1\n      tag_239\n      dup2\n      tag_200\n      jump\t// in\n    tag_239:\n      swap2\n      pop\n      pop\n        /* \"Lottery.sol\":1916:2113  for (uint256 i = 0; i < tickets.length; i++) {... */\n      jump(tag_226)\n    tag_227:\n      pop\n        /* \"Lottery.sol\":2130:2147  ticketsForAddress */\n      swap1\n      swap4\n        /* \"Lottery.sol\":1710:2155  function getTicketsForAddress(address addr) public view returns (address[] memory)... */\n      swap3\n      pop\n      pop\n      pop\n      jump\t// out\n        /* \"Lottery.sol\":5056:5172  function CurrentWinningReward() public view returns (uint256) {... */\n    tag_113:\n        /* \"Lottery.sol\":5136:5143  tickets */\n      0x06\n        /* \"Lottery.sol\":5136:5150  tickets.length */\n      sload\n        /* \"Lottery.sol\":5109:5116  uint256 */\n      0x00\n      swap1\n        /* \"Lottery.sol\":5136:5164  tickets.length * ticketPrice */\n      tag_202\n      swap1\n        /* \"Lottery.sol\":217:227  0.01 ether */\n      0x2386f26fc10000\n      swap1\n        /* \"Lottery.sol\":5136:5164  tickets.length * ticketPrice */\n      tag_159\n      jump\t// in\n        /* \"Lottery.sol\":3642:3849  function restartDraw() public isOperator {... */\n    tag_127:\n        /* \"Lottery.sol\":1150:1165  lotteryOperator */\n      and(sub(shl(0xa0, 0x01), 0x01), sload(0x01))\n        /* \"Lottery.sol\":1136:1146  msg.sender */\n      caller\n        /* \"Lottery.sol\":1136:1165  msg.sender == lotteryOperator */\n      eq\n        /* \"Lottery.sol\":1113:1228  require(... */\n      tag_244\n      jumpi\n      mload(0x40)\n      shl(0xe5, 0x461bcd)\n      dup2\n      mstore\n        /* \"#utility.yul\":2006:2008   */\n      0x20\n        /* \"Lottery.sol\":1113:1228  require(... */\n      0x04\n      dup3\n      add\n        /* \"#utility.yul\":1988:2009   */\n      mstore\n        /* \"#utility.yul\":2045:2047   */\n      0x22\n        /* \"#utility.yul\":2025:2043   */\n      0x24\n      dup3\n      add\n        /* \"#utility.yul\":2018:2048   */\n      mstore\n        /* \"#utility.yul\":2084:2118   */\n      0x43616c6c6572206973206e6f7420746865206c6f7474657279206f7065726174\n        /* \"#utility.yul\":2064:2082   */\n      0x44\n      dup3\n      add\n        /* \"#utility.yul\":2057:2119   */\n      mstore\n      shl(0xf1, 0x37b9)\n        /* \"#utility.yul\":2135:2153   */\n      0x64\n      dup3\n      add\n        /* \"#utility.yul\":2128:2160   */\n      mstore\n        /* \"#utility.yul\":2177:2196   */\n      0x84\n      add\n        /* \"Lottery.sol\":1113:1228  require(... */\n      tag_135\n        /* \"#utility.yul\":1804:2202   */\n      jump\n        /* \"Lottery.sol\":1113:1228  require(... */\n    tag_244:\n        /* \"Lottery.sol\":3702:3709  tickets */\n      0x06\n        /* \"Lottery.sol\":3702:3716  tickets.length */\n      sload\n        /* \"Lottery.sol\":3702:3721  tickets.length == 0 */\n      iszero\n        /* \"Lottery.sol\":3694:3764  require(tickets.length == 0, \"Cannot Restart Draw as Draw is in play\") */\n      tag_247\n      jumpi\n      mload(0x40)\n      shl(0xe5, 0x461bcd)\n      dup2\n      mstore\n        /* \"#utility.yul\":6688:6690   */\n      0x20\n        /* \"Lottery.sol\":3694:3764  require(tickets.length == 0, \"Cannot Restart Draw as Draw is in play\") */\n      0x04\n      dup3\n      add\n        /* \"#utility.yul\":6670:6691   */\n      mstore\n        /* \"#utility.yul\":6727:6729   */\n      0x26\n        /* \"#utility.yul\":6707:6725   */\n      0x24\n      dup3\n      add\n        /* \"#utility.yul\":6700:6730   */\n      mstore\n        /* \"#utility.yul\":6766:6800   */\n      0x43616e6e6f742052657374617274204472617720617320447261772069732069\n        /* \"#utility.yul\":6746:6764   */\n      0x44\n      dup3\n      add\n        /* \"#utility.yul\":6739:6801   */\n      mstore\n        /* \"#utility.yul\":6837:6845   */\n      0x6e20706c61790000000000000000000000000000000000000000000000000000\n        /* \"#utility.yul\":6817:6835   */\n      0x64\n      dup3\n      add\n        /* \"#utility.yul\":6810:6846   */\n      mstore\n        /* \"#utility.yul\":6863:6882   */\n      0x84\n      add\n        /* \"Lottery.sol\":3694:3764  require(tickets.length == 0, \"Cannot Restart Draw as Draw is in play\") */\n      tag_135\n        /* \"#utility.yul\":6486:6888   */\n      jump\n        /* \"Lottery.sol\":3694:3764  require(tickets.length == 0, \"Cannot Restart Draw as Draw is in play\") */\n    tag_247:\n        /* \"Lottery.sol\":3777:3791  delete tickets */\n      tag_250\n        /* \"Lottery.sol\":3784:3791  tickets */\n      0x06\n      0x00\n        /* \"Lottery.sol\":3777:3791  delete tickets */\n      tag_165\n      jump\t// in\n    tag_250:\n        /* \"Lottery.sol\":3815:3841  block.timestamp + duration */\n      tag_251\n        /* \"Lottery.sol\":432:442  30 minutes */\n      0x0708\n        /* \"Lottery.sol\":3815:3830  block.timestamp */\n      timestamp\n        /* \"Lottery.sol\":3815:3841  block.timestamp + duration */\n      tag_161\n      jump\t// in\n    tag_251:\n        /* \"Lottery.sol\":3802:3812  expiration */\n      0x00\n        /* \"Lottery.sol\":3802:3841  expiration = block.timestamp + duration */\n      sstore\n        /* \"Lottery.sol\":3642:3849  function restartDraw() public isOperator {... */\n      jump\t// out\n        /* \"@openzeppelin/contracts/utils/Strings.sol\":392:1095   */\n    tag_183:\n        /* \"@openzeppelin/contracts/utils/Strings.sol\":448:461   */\n      0x60\n        /* \"@openzeppelin/contracts/utils/Strings.sol\":665:670   */\n      dup2\n        /* \"@openzeppelin/contracts/utils/Strings.sol\":674:675   */\n      0x00\n        /* \"@openzeppelin/contracts/utils/Strings.sol\":665:675   */\n      sub\n        /* \"@openzeppelin/contracts/utils/Strings.sol\":661:712   */\n      tag_253\n      jumpi\n      pop\n      pop\n        /* \"@openzeppelin/contracts/utils/Strings.sol\":691:701   */\n      0x40\n      dup1\n      mload\n      dup1\n      dup3\n      add\n      swap1\n      swap2\n      mstore\n      0x01\n      dup2\n      mstore\n      shl(0xfc, 0x03)\n      0x20\n      dup3\n      add\n      mstore\n      swap1\n        /* \"@openzeppelin/contracts/utils/Strings.sol\":392:1095   */\n      jump\t// out\n        /* \"@openzeppelin/contracts/utils/Strings.sol\":661:712   */\n    tag_253:\n        /* \"@openzeppelin/contracts/utils/Strings.sol\":736:741   */\n      dup2\n        /* \"@openzeppelin/contracts/utils/Strings.sol\":721:733   */\n      0x00\n        /* \"@openzeppelin/contracts/utils/Strings.sol\":775:850   */\n    tag_254:\n        /* \"@openzeppelin/contracts/utils/Strings.sol\":782:791   */\n      dup2\n      iszero\n        /* \"@openzeppelin/contracts/utils/Strings.sol\":775:850   */\n      tag_255\n      jumpi\n        /* \"@openzeppelin/contracts/utils/Strings.sol\":807:815   */\n      dup1\n      tag_256\n      dup2\n      tag_200\n      jump\t// in\n    tag_256:\n      swap2\n      pop\n        /* \"@openzeppelin/contracts/utils/Strings.sol\":829:839   */\n      tag_257\n      swap1\n      pop\n        /* \"@openzeppelin/contracts/utils/Strings.sol\":837:839   */\n      0x0a\n        /* \"@openzeppelin/contracts/utils/Strings.sol\":829:839   */\n      dup4\n      tag_190\n      jump\t// in\n    tag_257:\n      swap2\n      pop\n        /* \"@openzeppelin/contracts/utils/Strings.sol\":775:850   */\n      jump(tag_254)\n    tag_255:\n        /* \"@openzeppelin/contracts/utils/Strings.sol\":859:878   */\n      0x00\n        /* \"@openzeppelin/contracts/utils/Strings.sol\":891:897   */\n      dup2\n        /* \"@openzeppelin/contracts/utils/Strings.sol\":881:898   */\n      0xffffffffffffffff\n      dup2\n      gt\n      iszero\n      tag_259\n      jumpi\n      tag_259\n      tag_224\n      jump\t// in\n    tag_259:\n      mload(0x40)\n      swap1\n      dup1\n      dup3\n      mstore\n      dup1\n      0x1f\n      add\n      not(0x1f)\n      and\n      0x20\n      add\n      dup3\n      add\n      0x40\n      mstore\n      dup1\n      iszero\n      tag_260\n      jumpi\n      0x20\n      dup3\n      add\n      dup2\n      dup1\n      calldatasize\n      dup4\n      calldatacopy\n      add\n      swap1\n      pop\n    tag_260:\n      pop\n        /* \"@openzeppelin/contracts/utils/Strings.sol\":859:898   */\n      swap1\n      pop\n        /* \"@openzeppelin/contracts/utils/Strings.sol\":908:1058   */\n    tag_261:\n        /* \"@openzeppelin/contracts/utils/Strings.sol\":915:925   */\n      dup5\n      iszero\n        /* \"@openzeppelin/contracts/utils/Strings.sol\":908:1058   */\n      tag_262\n      jumpi\n        /* \"@openzeppelin/contracts/utils/Strings.sol\":941:952   */\n      tag_263\n        /* \"@openzeppelin/contracts/utils/Strings.sol\":951:952   */\n      0x01\n        /* \"@openzeppelin/contracts/utils/Strings.sol\":941:952   */\n      dup4\n      tag_148\n      jump\t// in\n    tag_263:\n      swap2\n      pop\n        /* \"@openzeppelin/contracts/utils/Strings.sol\":1009:1019   */\n      tag_264\n        /* \"@openzeppelin/contracts/utils/Strings.sol\":1017:1019   */\n      0x0a\n        /* \"@openzeppelin/contracts/utils/Strings.sol\":1009:1014   */\n      dup7\n        /* \"@openzeppelin/contracts/utils/Strings.sol\":1009:1019   */\n      tag_152\n      jump\t// in\n    tag_264:\n        /* \"@openzeppelin/contracts/utils/Strings.sol\":996:1020   */\n      tag_265\n      swap1\n        /* \"@openzeppelin/contracts/utils/Strings.sol\":996:998   */\n      0x30\n        /* \"@openzeppelin/contracts/utils/Strings.sol\":996:1020   */\n      tag_161\n      jump\t// in\n    tag_265:\n        /* \"@openzeppelin/contracts/utils/Strings.sol\":983:1022   */\n      0xf8\n      shl\n        /* \"@openzeppelin/contracts/utils/Strings.sol\":966:972   */\n      dup2\n        /* \"@openzeppelin/contracts/utils/Strings.sol\":973:979   */\n      dup4\n        /* \"@openzeppelin/contracts/utils/Strings.sol\":966:980   */\n      dup2\n      mload\n      dup2\n      lt\n      tag_267\n      jumpi\n      tag_267\n      tag_155\n      jump\t// in\n    tag_267:\n      0x20\n      add\n      add\n        /* \"@openzeppelin/contracts/utils/Strings.sol\":966:1022   */\n      swap1\n      not(0xffffffffffffffffffffffffffffffffffffffffffffffffffffffffffffff)\n      and\n      swap1\n      dup2\n      0x00\n      byte\n      swap1\n      mstore8\n      pop\n        /* \"@openzeppelin/contracts/utils/Strings.sol\":1036:1047   */\n      tag_268\n        /* \"@openzeppelin/contracts/utils/Strings.sol\":1045:1047   */\n      0x0a\n        /* \"@openzeppelin/contracts/utils/Strings.sol\":1036:1047   */\n      dup7\n      tag_190\n      jump\t// in\n    tag_268:\n      swap5\n      pop\n        /* \"@openzeppelin/contracts/utils/Strings.sol\":908:1058   */\n      jump(tag_261)\n    tag_262:\n        /* \"@openzeppelin/contracts/utils/Strings.sol\":1081:1087   */\n      swap5\n        /* \"@openzeppelin/contracts/utils/Strings.sol\":392:1095   */\n      swap4\n      pop\n      pop\n      pop\n      pop\n      jump\t// out\n    tag_165:\n      pop\n      dup1\n      sload\n      0x00\n      dup3\n      sstore\n      swap1\n      0x00\n      mstore\n      keccak256(0x00, 0x20)\n      swap1\n      dup2\n      add\n      swap1\n      tag_270\n      swap2\n      swap1\n      tag_271\n      jump\t// in\n    tag_270:\n      pop\n      jump\t// out\n    tag_271:\n    tag_272:\n      dup1\n      dup3\n      gt\n      iszero\n      tag_273\n      jumpi\n      0x00\n      dup2\n      sstore\n      0x01\n      add\n      jump(tag_272)\n    tag_273:\n      pop\n      swap1\n      jump\t// out\n        /* \"#utility.yul\":196:877   */\n    tag_64:\n        /* \"#utility.yul\":367:369   */\n      0x20\n        /* \"#utility.yul\":419:440   */\n      dup1\n      dup3\n      mstore\n        /* \"#utility.yul\":489:502   */\n      dup3\n      mload\n        /* \"#utility.yul\":392:410   */\n      dup3\n      dup3\n      add\n        /* \"#utility.yul\":511:533   */\n      dup2\n      swap1\n      mstore\n        /* \"#utility.yul\":338:342   */\n      0x00\n      swap2\n        /* \"#utility.yul\":367:369   */\n      swap1\n        /* \"#utility.yul\":590:605   */\n      dup5\n      dup3\n      add\n      swap1\n        /* \"#utility.yul\":564:566   */\n      0x40\n        /* \"#utility.yul\":549:567   */\n      dup6\n      add\n      swap1\n        /* \"#utility.yul\":338:342   */\n      dup5\n        /* \"#utility.yul\":633:851   */\n    tag_280:\n        /* \"#utility.yul\":647:653   */\n      dup2\n        /* \"#utility.yul\":644:645   */\n      dup2\n        /* \"#utility.yul\":641:654   */\n      lt\n        /* \"#utility.yul\":633:851   */\n      iszero\n      tag_282\n      jumpi\n        /* \"#utility.yul\":712:725   */\n      dup4\n      mload\n      sub(shl(0xa0, 0x01), 0x01)\n        /* \"#utility.yul\":708:770   */\n      and\n        /* \"#utility.yul\":696:771   */\n      dup4\n      mstore\n        /* \"#utility.yul\":826:841   */\n      swap3\n      dup5\n      add\n      swap3\n        /* \"#utility.yul\":791:803   */\n      swap2\n      dup5\n      add\n      swap2\n        /* \"#utility.yul\":669:670   */\n      0x01\n        /* \"#utility.yul\":662:671   */\n      add\n        /* \"#utility.yul\":633:851   */\n      jump(tag_280)\n    tag_282:\n      pop\n        /* \"#utility.yul\":868:871   */\n      swap1\n      swap7\n        /* \"#utility.yul\":196:877   */\n      swap6\n      pop\n      pop\n      pop\n      pop\n      pop\n      pop\n      jump\t// out\n        /* \"#utility.yul\":882:1062   */\n    tag_68:\n        /* \"#utility.yul\":941:947   */\n      0x00\n        /* \"#utility.yul\":994:996   */\n      0x20\n        /* \"#utility.yul\":982:991   */\n      dup3\n        /* \"#utility.yul\":973:980   */\n      dup5\n        /* \"#utility.yul\":969:992   */\n      sub\n        /* \"#utility.yul\":965:997   */\n      slt\n        /* \"#utility.yul\":962:1014   */\n      iszero\n      tag_284\n      jumpi\n        /* \"#utility.yul\":1010:1011   */\n      0x00\n        /* \"#utility.yul\":1007:1008   */\n      dup1\n        /* \"#utility.yul\":1000:1012   */\n      revert\n        /* \"#utility.yul\":962:1014   */\n    tag_284:\n      pop\n        /* \"#utility.yul\":1033:1056   */\n      calldataload\n      swap2\n        /* \"#utility.yul\":882:1062   */\n      swap1\n      pop\n      jump\t// out\n        /* \"#utility.yul\":1490:1799   */\n    tag_104:\n        /* \"#utility.yul\":1549:1555   */\n      0x00\n        /* \"#utility.yul\":1602:1604   */\n      0x20\n        /* \"#utility.yul\":1590:1599   */\n      dup3\n        /* \"#utility.yul\":1581:1588   */\n      dup5\n        /* \"#utility.yul\":1577:1600   */\n      sub\n        /* \"#utility.yul\":1573:1605   */\n      slt\n        /* \"#utility.yul\":1570:1622   */\n      iszero\n      tag_288\n      jumpi\n        /* \"#utility.yul\":1618:1619   */\n      0x00\n        /* \"#utility.yul\":1615:1616   */\n      dup1\n        /* \"#utility.yul\":1608:1620   */\n      revert\n        /* \"#utility.yul\":1570:1622   */\n    tag_288:\n        /* \"#utility.yul\":1657:1666   */\n      dup2\n        /* \"#utility.yul\":1644:1667   */\n      calldataload\n      sub(shl(0xa0, 0x01), 0x01)\n        /* \"#utility.yul\":1700:1705   */\n      dup2\n        /* \"#utility.yul\":1696:1750   */\n      and\n        /* \"#utility.yul\":1689:1694   */\n      dup2\n        /* \"#utility.yul\":1686:1751   */\n      eq\n        /* \"#utility.yul\":1676:1769   */\n      tag_289\n      jumpi\n        /* \"#utility.yul\":1765:1766   */\n      0x00\n        /* \"#utility.yul\":1762:1763   */\n      dup1\n        /* \"#utility.yul\":1755:1767   */\n      revert\n        /* \"#utility.yul\":1676:1769   */\n    tag_289:\n        /* \"#utility.yul\":1788:1793   */\n      swap4\n        /* \"#utility.yul\":1490:1799   */\n      swap3\n      pop\n      pop\n      pop\n      jump\t// out\n        /* \"#utility.yul\":2561:2688   */\n    tag_274:\n        /* \"#utility.yul\":2622:2632   */\n      0x4e487b71\n        /* \"#utility.yul\":2617:2620   */\n      0xe0\n        /* \"#utility.yul\":2613:2633   */\n      shl\n        /* \"#utility.yul\":2610:2611   */\n      0x00\n        /* \"#utility.yul\":2603:2634   */\n      mstore\n        /* \"#utility.yul\":2653:2657   */\n      0x11\n        /* \"#utility.yul\":2650:2651   */\n      0x04\n        /* \"#utility.yul\":2643:2658   */\n      mstore\n        /* \"#utility.yul\":2677:2681   */\n      0x24\n        /* \"#utility.yul\":2674:2675   */\n      0x00\n        /* \"#utility.yul\":2667:2682   */\n      revert\n        /* \"#utility.yul\":2693:2821   */\n    tag_148:\n        /* \"#utility.yul\":2760:2769   */\n      dup2\n      dup2\n      sub\n        /* \"#utility.yul\":2781:2792   */\n      dup2\n      dup2\n      gt\n        /* \"#utility.yul\":2778:2815   */\n      iszero\n      tag_295\n      jumpi\n        /* \"#utility.yul\":2795:2813   */\n      tag_295\n      tag_274\n      jump\t// in\n    tag_295:\n        /* \"#utility.yul\":2693:2821   */\n      swap3\n      swap2\n      pop\n      pop\n      jump\t// out\n        /* \"#utility.yul\":3078:3205   */\n    tag_275:\n        /* \"#utility.yul\":3139:3149   */\n      0x4e487b71\n        /* \"#utility.yul\":3134:3137   */\n      0xe0\n        /* \"#utility.yul\":3130:3150   */\n      shl\n        /* \"#utility.yul\":3127:3128   */\n      0x00\n        /* \"#utility.yul\":3120:3151   */\n      mstore\n        /* \"#utility.yul\":3170:3174   */\n      0x12\n        /* \"#utility.yul\":3167:3168   */\n      0x04\n        /* \"#utility.yul\":3160:3175   */\n      mstore\n        /* \"#utility.yul\":3194:3198   */\n      0x24\n        /* \"#utility.yul\":3191:3192   */\n      0x00\n        /* \"#utility.yul\":3184:3199   */\n      revert\n        /* \"#utility.yul\":3210:3322   */\n    tag_152:\n        /* \"#utility.yul\":3242:3243   */\n      0x00\n        /* \"#utility.yul\":3268:3269   */\n      dup3\n        /* \"#utility.yul\":3258:3293   */\n      tag_300\n      jumpi\n        /* \"#utility.yul\":3273:3291   */\n      tag_300\n      tag_275\n      jump\t// in\n    tag_300:\n      pop\n        /* \"#utility.yul\":3307:3316   */\n      mod\n      swap1\n        /* \"#utility.yul\":3210:3322   */\n      jump\t// out\n        /* \"#utility.yul\":3327:3454   */\n    tag_155:\n        /* \"#utility.yul\":3388:3398   */\n      0x4e487b71\n        /* \"#utility.yul\":3383:3386   */\n      0xe0\n        /* \"#utility.yul\":3379:3399   */\n      shl\n        /* \"#utility.yul\":3376:3377   */\n      0x00\n        /* \"#utility.yul\":3369:3400   */\n      mstore\n        /* \"#utility.yul\":3419:3423   */\n      0x32\n        /* \"#utility.yul\":3416:3417   */\n      0x04\n        /* \"#utility.yul\":3409:3424   */\n      mstore\n        /* \"#utility.yul\":3443:3447   */\n      0x24\n        /* \"#utility.yul\":3440:3441   */\n      0x00\n        /* \"#utility.yul\":3433:3448   */\n      revert\n        /* \"#utility.yul\":3459:3627   */\n    tag_159:\n        /* \"#utility.yul\":3532:3541   */\n      dup1\n      dup3\n      mul\n        /* \"#utility.yul\":3563:3572   */\n      dup2\n      iszero\n        /* \"#utility.yul\":3580:3595   */\n      dup3\n      dup3\n      div\n        /* \"#utility.yul\":3574:3596   */\n      dup5\n      eq\n        /* \"#utility.yul\":3560:3597   */\n      or\n        /* \"#utility.yul\":3550:3621   */\n      tag_295\n      jumpi\n        /* \"#utility.yul\":3601:3619   */\n      tag_295\n      tag_274\n      jump\t// in\n        /* \"#utility.yul\":3632:3757   */\n    tag_161:\n        /* \"#utility.yul\":3697:3706   */\n      dup1\n      dup3\n      add\n        /* \"#utility.yul\":3718:3728   */\n      dup1\n      dup3\n      gt\n        /* \"#utility.yul\":3715:3751   */\n      iszero\n      tag_295\n      jumpi\n        /* \"#utility.yul\":3731:3749   */\n      tag_295\n      tag_274\n      jump\t// in\n        /* \"#utility.yul\":4113:4363   */\n    tag_276:\n        /* \"#utility.yul\":4198:4199   */\n      0x00\n        /* \"#utility.yul\":4208:4321   */\n    tag_310:\n        /* \"#utility.yul\":4222:4228   */\n      dup4\n        /* \"#utility.yul\":4219:4220   */\n      dup2\n        /* \"#utility.yul\":4216:4229   */\n      lt\n        /* \"#utility.yul\":4208:4321   */\n      iszero\n      tag_312\n      jumpi\n        /* \"#utility.yul\":4298:4309   */\n      dup2\n      dup2\n      add\n        /* \"#utility.yul\":4292:4310   */\n      mload\n        /* \"#utility.yul\":4279:4290   */\n      dup4\n      dup3\n      add\n        /* \"#utility.yul\":4272:4311   */\n      mstore\n        /* \"#utility.yul\":4244:4246   */\n      0x20\n        /* \"#utility.yul\":4237:4247   */\n      add\n        /* \"#utility.yul\":4208:4321   */\n      jump(tag_310)\n    tag_312:\n      pop\n      pop\n        /* \"#utility.yul\":4355:4356   */\n      0x00\n        /* \"#utility.yul\":4337:4353   */\n      swap2\n      add\n        /* \"#utility.yul\":4330:4357   */\n      mstore\n        /* \"#utility.yul\":4113:4363   */\n      jump\t// out\n        /* \"#utility.yul\":4368:4969   */\n    tag_185:\n        /* \"#utility.yul\":4710:4742   */\n      0x7468652076616c7565206d757374206265206d756c7469706c65206f66200000\n        /* \"#utility.yul\":4705:4708   */\n      dup2\n        /* \"#utility.yul\":4698:4743   */\n      mstore\n        /* \"#utility.yul\":4680:4683   */\n      0x00\n        /* \"#utility.yul\":4772:4778   */\n      dup3\n        /* \"#utility.yul\":4766:4779   */\n      mload\n        /* \"#utility.yul\":4788:4863   */\n      tag_314\n        /* \"#utility.yul\":4856:4862   */\n      dup2\n        /* \"#utility.yul\":4851:4853   */\n      0x1e\n        /* \"#utility.yul\":4846:4849   */\n      dup6\n        /* \"#utility.yul\":4842:4854   */\n      add\n        /* \"#utility.yul\":4835:4839   */\n      0x20\n        /* \"#utility.yul\":4827:4833   */\n      dup8\n        /* \"#utility.yul\":4823:4840   */\n      add\n        /* \"#utility.yul\":4788:4863   */\n      tag_276\n      jump\t// in\n    tag_314:\n        /* \"#utility.yul\":4927:4935   */\n      0x2045746865720000000000000000000000000000000000000000000000000000\n        /* \"#utility.yul\":4922:4924   */\n      0x1e\n        /* \"#utility.yul\":4882:4898   */\n      swap4\n      swap1\n      swap2\n      add\n        /* \"#utility.yul\":4914:4925   */\n      swap3\n      dup4\n      add\n        /* \"#utility.yul\":4907:4936   */\n      mstore\n      pop\n        /* \"#utility.yul\":4960:4962   */\n      0x24\n        /* \"#utility.yul\":4952:4963   */\n      add\n      swap2\n        /* \"#utility.yul\":4368:4969   */\n      swap1\n      pop\n      jump\t// out\n        /* \"#utility.yul\":4974:5370   */\n    tag_188:\n        /* \"#utility.yul\":5123:5125   */\n      0x20\n        /* \"#utility.yul\":5112:5121   */\n      dup2\n        /* \"#utility.yul\":5105:5126   */\n      mstore\n        /* \"#utility.yul\":5086:5090   */\n      0x00\n        /* \"#utility.yul\":5155:5161   */\n      dup3\n        /* \"#utility.yul\":5149:5162   */\n      mload\n        /* \"#utility.yul\":5198:5204   */\n      dup1\n        /* \"#utility.yul\":5193:5195   */\n      0x20\n        /* \"#utility.yul\":5182:5191   */\n      dup5\n        /* \"#utility.yul\":5178:5196   */\n      add\n        /* \"#utility.yul\":5171:5205   */\n      mstore\n        /* \"#utility.yul\":5214:5293   */\n      tag_316\n        /* \"#utility.yul\":5286:5292   */\n      dup2\n        /* \"#utility.yul\":5281:5283   */\n      0x40\n        /* \"#utility.yul\":5270:5279   */\n      dup6\n        /* \"#utility.yul\":5266:5284   */\n      add\n        /* \"#utility.yul\":5261:5263   */\n      0x20\n        /* \"#utility.yul\":5253:5259   */\n      dup8\n        /* \"#utility.yul\":5249:5264   */\n      add\n        /* \"#utility.yul\":5214:5293   */\n      tag_276\n      jump\t// in\n    tag_316:\n        /* \"#utility.yul\":5354:5356   */\n      0x1f\n        /* \"#utility.yul\":5333:5348   */\n      add\n      not(0x1f)\n        /* \"#utility.yul\":5329:5358   */\n      and\n        /* \"#utility.yul\":5314:5359   */\n      swap2\n      swap1\n      swap2\n      add\n        /* \"#utility.yul\":5361:5363   */\n      0x40\n        /* \"#utility.yul\":5310:5364   */\n      add\n      swap3\n        /* \"#utility.yul\":4974:5370   */\n      swap2\n      pop\n      pop\n      jump\t// out\n        /* \"#utility.yul\":5375:5495   */\n    tag_190:\n        /* \"#utility.yul\":5415:5416   */\n      0x00\n        /* \"#utility.yul\":5441:5442   */\n      dup3\n        /* \"#utility.yul\":5431:5466   */\n      tag_319\n      jumpi\n        /* \"#utility.yul\":5446:5464   */\n      tag_319\n      tag_275\n      jump\t// in\n    tag_319:\n      pop\n        /* \"#utility.yul\":5480:5489   */\n      div\n      swap1\n        /* \"#utility.yul\":5375:5495   */\n      jump\t// out\n        /* \"#utility.yul\":5858:5993   */\n    tag_200:\n        /* \"#utility.yul\":5897:5900   */\n      0x00\n        /* \"#utility.yul\":5918:5935   */\n      0x01\n      dup3\n      add\n        /* \"#utility.yul\":5915:5958   */\n      tag_323\n      jumpi\n        /* \"#utility.yul\":5938:5956   */\n      tag_323\n      tag_274\n      jump\t// in\n    tag_323:\n      pop\n        /* \"#utility.yul\":5985:5986   */\n      0x01\n        /* \"#utility.yul\":5974:5987   */\n      add\n      swap1\n        /* \"#utility.yul\":5858:5993   */\n      jump\t// out\n        /* \"#utility.yul\":6354:6481   */\n    tag_224:\n        /* \"#utility.yul\":6415:6425   */\n      0x4e487b71\n        /* \"#utility.yul\":6410:6413   */\n      0xe0\n        /* \"#utility.yul\":6406:6426   */\n      shl\n        /* \"#utility.yul\":6403:6404   */\n      0x00\n        /* \"#utility.yul\":6396:6427   */\n      mstore\n        /* \"#utility.yul\":6446:6450   */\n      0x41\n        /* \"#utility.yul\":6443:6444   */\n      0x04\n        /* \"#utility.yul\":6436:6451   */\n      mstore\n        /* \"#utility.yul\":6470:6474   */\n      0x24\n        /* \"#utility.yul\":6467:6468   */\n      0x00\n        /* \"#utility.yul\":6460:6475   */\n      revert\n\n    auxdata: 0xa264697066735822122095d63b2db36f5dc42c255f7ecf9f7af5ff4b9489557d8ac3892988f34dabd26d64736f6c63430008110033\n}\n",
    "bytecode": {
      "linkReferences": {},
      "object": "6080604052600060025534801561001557600080fd5b50600180546001600160a01b031916331790556100346107084261003c565b600055610063565b8082018082111561005d57634e487b7160e01b600052601160045260246000fd5b92915050565b611099806100726000396000f3fe60806040526004361061018b5760003560e01c806391d8b14e116100d6578063ba946d791161007f578063ea3a149911610059578063ea3a1499146103ef578063f26132691461041c578063fe1881841461043157600080fd5b8063ba946d791461038e578063c6944fa0146103a4578063dd64e534146103b957600080fd5b80639b894703116100b05780639b89470314610344578063a88f467214610359578063b9a8efb91461036e57600080fd5b806391d8b14e146102f857806393a563b51461030057806396c85ef31461031557600080fd5b80634788af7c116101385780635a58acdd116101125780635a58acdd146102a85780636032a4f9146102c857806371827b7b146102e357600080fd5b80634788af7c146102395780634ed026221461024e57806350b447121461027057600080fd5b80631209b1f6116101695780631209b1f6146101f157806335580df21461020c5780634665096d1461022357600080fd5b806306f7f3bf146101905780630789c607146101b95780630fb5a6b4146101db575b600080fd5b34801561019c57600080fd5b506101a660045481565b6040519081526020015b60405180910390f35b3480156101c557600080fd5b50336000908152600560205260409020546101a6565b3480156101e757600080fd5b506101a661070881565b3480156101fd57600080fd5b506101a6662386f26fc1000081565b34801561021857600080fd5b50610221610451565b005b34801561022f57600080fd5b506101a660005481565b34801561024557600080fd5b506102216104f8565b34801561025a57600080fd5b5061026361070c565b6040516101b09190610e2e565b34801561027c57600080fd5b5061029061028b366004610e7b565b61076e565b6040516001600160a01b0390911681526020016101b0565b3480156102b457600080fd5b50600154610290906001600160a01b031681565b3480156102d457600080fd5b506101a666038d7ea4c6800081565b3480156102ef57600080fd5b50610221610798565b610221610837565b34801561030c57600080fd5b506101a6610973565b34801561032157600080fd5b5033600090815260056020526040902054151560405190151581526020016101b0565b34801561035057600080fd5b506101a6606481565b34801561036557600080fd5b50610221610989565b34801561037a57600080fd5b50610263610389366004610e94565b610aad565b34801561039a57600080fd5b506101a660025481565b3480156103b057600080fd5b506101a6610bc3565b3480156103c557600080fd5b506101a66103d4366004610e94565b6001600160a01b031660009081526005602052604090205490565b3480156103fb57600080fd5b506101a661040a366004610e94565b60056020526000908152604090205481565b34801561042857600080fd5b50610221610bdb565b34801561043d57600080fd5b50600354610290906001600160a01b031681565b6001546001600160a01b031633146104bb5760405162461bcd60e51b815260206004820152602260248201527f43616c6c6572206973206e6f7420746865206c6f7474657279206f706572617460448201526137b960f11b60648201526084015b60405180910390fd5b600280546000918290556040513392839183156108fc0291849190818181858888f193505050501580156104f3573d6000803e3d6000fd5b505050565b6001546001600160a01b0316331461055d5760405162461bcd60e51b815260206004820152602260248201527f43616c6c6572206973206e6f7420746865206c6f7474657279206f706572617460448201526137b960f11b60648201526084016104b2565b6006546105ac5760405162461bcd60e51b815260206004820152601960248201527f4e6f207469636b6574732077657265207075726368617365640000000000000060448201526064016104b2565b6006546000906105bc9043610eda565b604080514260208201529140908201819052915060009060600160408051601f1981840301815291905280516020909101206006549091506000906106019083610f09565b905060006006828154811061061857610618610f1d565b6000918252602090912001546003805473ffffffffffffffffffffffffffffffffffffffff19166001600160a01b039092169182179055905061066966038d7ea4c68000662386f26fc10000610eda565b6006546106769190610f33565b6001600160a01b0382166000908152600560205260408120805490919061069e908490610f4a565b90915550506001600160a01b0381166000908152600560205260409020546004556006546106d49066038d7ea4c6800090610f33565b600260008282546106e59190610f4a565b909155506106f7905060066000610df4565b61070361070842610f4a565b60005550505050565b6060600680548060200260200160405190810160405280929190818152602001828054801561076457602002820191906000526020600020905b81546001600160a01b03168152600190910190602001808311610746575b5050505050905090565b6006818154811061077e57600080fd5b6000918252602090912001546001600160a01b0316905081565b336000908152600560205260409020546107f45760405162461bcd60e51b815260206004820152601660248201527f43616c6c6572206973206e6f7420612077696e6e65720000000000000000000060448201526064016104b2565b3360008181526005602052604080822080549083905590519091839183156108fc0291849190818181858888f193505050501580156104f3573d6000803e3d6000fd5b610848662386f26fc1000034610f09565b15610859662386f26fc10000610cd3565b6040516020016108699190610f81565b604051602081830303815290604052906108965760405162461bcd60e51b81526004016104b29190610fed565b5060006108aa662386f26fc1000034611020565b90506108b4610973565b8111156109035760405162461bcd60e51b815260206004820152601d60248201527f4e6f7420656e6f756768207469636b65747320617661696c61626c652e00000060448201526064016104b2565b60005b8181101561096f57600680546001810182556000919091527ff652222313e28459528d920b65115c16c04f3efc82aaedc97be59f3f377c0d3f01805473ffffffffffffffffffffffffffffffffffffffff1916331790558061096781611034565b915050610906565b5050565b600654600090610984906064610eda565b905090565b6000544210156109db5760405162461bcd60e51b815260206004820152601b60248201527f746865206c6f7474657279206e6f74206578706972656420796574000000000060448201526064016104b2565b60005b600654811015610a9e576000600682815481106109fd576109fd610f1d565b6000918252602082200154600680546001600160a01b0390921693509084908110610a2a57610a2a610f1d565b60009182526020822001805473ffffffffffffffffffffffffffffffffffffffff19166001600160a01b0393841617905560405191831691662386f26fc100009082818181858883f19350505050158015610a89573d6000803e3d6000fd5b50508080610a9690611034565b9150506109de565b50610aab60066000610df4565b565b60065460609060009067ffffffffffffffff811115610ace57610ace61104d565b604051908082528060200260200182016040528015610af7578160200160208202803683370190505b5090506000805b600654811015610bba57846001600160a01b031660068281548110610b2557610b25610f1d565b6000918252602090912001546001600160a01b031603610ba85760068181548110610b5257610b52610f1d565b9060005260206000200160009054906101000a90046001600160a01b0316838381518110610b8257610b82610f1d565b6001600160a01b039092166020928302919091019091015281610ba481611034565b9250505b80610bb281611034565b915050610afe565b50909392505050565b60065460009061098490662386f26fc1000090610f33565b6001546001600160a01b03163314610c405760405162461bcd60e51b815260206004820152602260248201527f43616c6c6572206973206e6f7420746865206c6f7474657279206f706572617460448201526137b960f11b60648201526084016104b2565b60065415610cb65760405162461bcd60e51b815260206004820152602660248201527f43616e6e6f74205265737461727420447261772061732044726177206973206960448201527f6e20706c6179000000000000000000000000000000000000000000000000000060648201526084016104b2565b610cc260066000610df4565b610cce61070842610f4a565b600055565b606081600003610cfa5750506040805180820190915260018152600360fc1b602082015290565b8160005b8115610d245780610d0e81611034565b9150610d1d9050600a83611020565b9150610cfe565b60008167ffffffffffffffff811115610d3f57610d3f61104d565b6040519080825280601f01601f191660200182016040528015610d69576020820181803683370190505b5090505b8415610dec57610d7e600183610eda565b9150610d8b600a86610f09565b610d96906030610f4a565b60f81b818381518110610dab57610dab610f1d565b60200101907effffffffffffffffffffffffffffffffffffffffffffffffffffffffffffff1916908160001a905350610de5600a86611020565b9450610d6d565b949350505050565b5080546000825590600052602060002090810190610e129190610e15565b50565b5b80821115610e2a5760008155600101610e16565b5090565b6020808252825182820181905260009190848201906040850190845b81811015610e6f5783516001600160a01b031683529284019291840191600101610e4a565b50909695505050505050565b600060208284031215610e8d57600080fd5b5035919050565b600060208284031215610ea657600080fd5b81356001600160a01b0381168114610ebd57600080fd5b9392505050565b634e487b7160e01b600052601160045260246000fd5b81810381811115610eed57610eed610ec4565b92915050565b634e487b7160e01b600052601260045260246000fd5b600082610f1857610f18610ef3565b500690565b634e487b7160e01b600052603260045260246000fd5b8082028115828204841417610eed57610eed610ec4565b80820180821115610eed57610eed610ec4565b60005b83811015610f78578181015183820152602001610f60565b50506000910152565b7f7468652076616c7565206d757374206265206d756c7469706c65206f66200000815260008251610fb981601e850160208701610f5d565b7f2045746865720000000000000000000000000000000000000000000000000000601e939091019283015250602401919050565b602081526000825180602084015261100c816040850160208701610f5d565b601f01601f19169190910160400192915050565b60008261102f5761102f610ef3565b500490565b60006001820161104657611046610ec4565b5060010190565b634e487b7160e01b600052604160045260246000fdfea264697066735822122095d63b2db36f5dc42c255f7ecf9f7af5ff4b9489557d8ac3892988f34dabd26d64736f6c63430008110033",
      "opcodes": "PUSH1 0x80 PUSH1 0x40 MSTORE PUSH1 0x0 PUSH1 0x2 SSTORE CALLVALUE DUP1 ISZERO PUSH2 0x15 JUMPI PUSH1 0x0 DUP1 REVERT JUMPDEST POP PUSH1 0x1 DUP1 SLOAD PUSH1 0x1 PUSH1 0x1 PUSH1 0xA0 SHL SUB NOT AND CALLER OR SWAP1 SSTORE PUSH2 0x34 PUSH2 0x708 TIMESTAMP PUSH2 0x3C JUMP JUMPDEST PUSH1 0x0 SSTORE PUSH2 0x63 JUMP JUMPDEST DUP1 DUP3 ADD DUP1 DUP3 GT ISZERO PUSH2 0x5D JUMPI PUSH4 0x4E487B71 PUSH1 0xE0 SHL PUSH1 0x0 MSTORE PUSH1 0x11 PUSH1 0x4 MSTORE PUSH1 0x24 PUSH1 0x0 REVERT JUMPDEST SWAP3 SWAP2 POP POP JUMP JUMPDEST PUSH2 0x1099 DUP1 PUSH2 0x72 PUSH1 0x0 CODECOPY PUSH1 0x0 RETURN INVALID PUSH1 0x80 PUSH1 0x40 MSTORE PUSH1 0x4 CALLDATASIZE LT PUSH2 0x18B JUMPI PUSH1 0x0 CALLDATALOAD PUSH1 0xE0 SHR DUP1 PUSH4 0x91D8B14E GT PUSH2 0xD6 JUMPI DUP1 PUSH4 0xBA946D79 GT PUSH2 0x7F JUMPI DUP1 PUSH4 0xEA3A1499 GT PUSH2 0x59 JUMPI DUP1 PUSH4 0xEA3A1499 EQ PUSH2 0x3EF JUMPI DUP1 PUSH4 0xF2613269 EQ PUSH2 0x41C JUMPI DUP1 PUSH4 0xFE188184 EQ PUSH2 0x431 JUMPI PUSH1 0x0 DUP1 REVERT JUMPDEST DUP1 PUSH4 0xBA946D79 EQ PUSH2 0x38E JUMPI DUP1 PUSH4 0xC6944FA0 EQ PUSH2 0x3A4 JUMPI DUP1 PUSH4 0xDD64E534 EQ PUSH2 0x3B9 JUMPI PUSH1 0x0 DUP1 REVERT JUMPDEST DUP1 PUSH4 0x9B894703 GT PUSH2 0xB0 JUMPI DUP1 PUSH4 0x9B894703 EQ PUSH2 0x344 JUMPI DUP1 PUSH4 0xA88F4672 EQ PUSH2 0x359 JUMPI DUP1 PUSH4 0xB9A8EFB9 EQ PUSH2 0x36E JUMPI PUSH1 0x0 DUP1 REVERT JUMPDEST DUP1 PUSH4 0x91D8B14E EQ PUSH2 0x2F8 JUMPI DUP1 PUSH4 0x93A563B5 EQ PUSH2 0x300 JUMPI DUP1 PUSH4 0x96C85EF3 EQ PUSH2 0x315 JUMPI PUSH1 0x0 DUP1 REVERT JUMPDEST DUP1 PUSH4 0x4788AF7C GT PUSH2 0x138 JUMPI DUP1 PUSH4 0x5A58ACDD GT PUSH2 0x112 JUMPI DUP1 PUSH4 0x5A58ACDD EQ PUSH2 0x2A8 JUMPI DUP1 PUSH4 0x6032A4F9 EQ PUSH2 0x2C8 JUMPI DUP1 PUSH4 0x71827B7B EQ PUSH2 0x2E3 JUMPI PUSH1 0x0 DUP1 REVERT JUMPDEST DUP1 PUSH4 0x4788AF7C EQ PUSH2 0x239 JUMPI DUP1 PUSH4 0x4ED02622 EQ PUSH2 0x24E JUMPI DUP1 PUSH4 0x50B44712 EQ PUSH2 0x270 JUMPI PUSH1 0x0 DUP1 REVERT JUMPDEST DUP1 PUSH4 0x1209B1F6 GT PUSH2 0x169 JUMPI DUP1 PUSH4 0x1209B1F6 EQ PUSH2 0x1F1 JUMPI DUP1 PUSH4 0x35580DF2 EQ PUSH2 0x20C JUMPI DUP1 PUSH4 0x4665096D EQ PUSH2 0x223 JUMPI PUSH1 0x0 DUP1 REVERT JUMPDEST DUP1 PUSH4 0x6F7F3BF EQ PUSH2 0x190 JUMPI DUP1 PUSH4 0x789C607 EQ PUSH2 0x1B9 JUMPI DUP1 PUSH4 0xFB5A6B4 EQ PUSH2 0x1DB JUMPI JUMPDEST PUSH1 0x0 DUP1 REVERT JUMPDEST CALLVALUE DUP1 ISZERO PUSH2 0x19C JUMPI PUSH1 0x0 DUP1 REVERT JUMPDEST POP PUSH2 0x1A6 PUSH1 0x4 SLOAD DUP2 JUMP JUMPDEST PUSH1 0x40 MLOAD SWAP1 DUP2 MSTORE PUSH1 0x20 ADD JUMPDEST PUSH1 0x40 MLOAD DUP1 SWAP2 SUB SWAP1 RETURN JUMPDEST CALLVALUE DUP1 ISZERO PUSH2 0x1C5 JUMPI PUSH1 0x0 DUP1 REVERT JUMPDEST POP CALLER PUSH1 0x0 SWAP1 DUP2 MSTORE PUSH1 0x5 PUSH1 0x20 MSTORE PUSH1 0x40 SWAP1 KECCAK256 SLOAD PUSH2 0x1A6 JUMP JUMPDEST CALLVALUE DUP1 ISZERO PUSH2 0x1E7 JUMPI PUSH1 0x0 DUP1 REVERT JUMPDEST POP PUSH2 0x1A6 PUSH2 0x708 DUP2 JUMP JUMPDEST CALLVALUE DUP1 ISZERO PUSH2 0x1FD JUMPI PUSH1 0x0 DUP1 REVERT JUMPDEST POP PUSH2 0x1A6 PUSH7 0x2386F26FC10000 DUP2 JUMP JUMPDEST CALLVALUE DUP1 ISZERO PUSH2 0x218 JUMPI PUSH1 0x0 DUP1 REVERT JUMPDEST POP PUSH2 0x221 PUSH2 0x451 JUMP JUMPDEST STOP JUMPDEST CALLVALUE DUP1 ISZERO PUSH2 0x22F JUMPI PUSH1 0x0 DUP1 REVERT JUMPDEST POP PUSH2 0x1A6 PUSH1 0x0 SLOAD DUP2 JUMP JUMPDEST CALLVALUE DUP1 ISZERO PUSH2 0x245 JUMPI PUSH1 0x0 DUP1 REVERT JUMPDEST POP PUSH2 0x221 PUSH2 0x4F8 JUMP JUMPDEST CALLVALUE DUP1 ISZERO PUSH2 0x25A JUMPI PUSH1 0x0 DUP1 REVERT JUMPDEST POP PUSH2 0x263 PUSH2 0x70C JUMP JUMPDEST PUSH1 0x40 MLOAD PUSH2 0x1B0 SWAP2 SWAP1 PUSH2 0xE2E JUMP JUMPDEST CALLVALUE DUP1 ISZERO PUSH2 0x27C JUMPI PUSH1 0x0 DUP1 REVERT JUMPDEST POP PUSH2 0x290 PUSH2 0x28B CALLDATASIZE PUSH1 0x4 PUSH2 0xE7B JUMP JUMPDEST PUSH2 0x76E JUMP JUMPDEST PUSH1 0x40 MLOAD PUSH1 0x1 PUSH1 0x1 PUSH1 0xA0 SHL SUB SWAP1 SWAP2 AND DUP2 MSTORE PUSH1 0x20 ADD PUSH2 0x1B0 JUMP JUMPDEST CALLVALUE DUP1 ISZERO PUSH2 0x2B4 JUMPI PUSH1 0x0 DUP1 REVERT JUMPDEST POP PUSH1 0x1 SLOAD PUSH2 0x290 SWAP1 PUSH1 0x1 PUSH1 0x1 PUSH1 0xA0 SHL SUB AND DUP2 JUMP JUMPDEST CALLVALUE DUP1 ISZERO PUSH2 0x2D4 JUMPI PUSH1 0x0 DUP1 REVERT JUMPDEST POP PUSH2 0x1A6 PUSH7 0x38D7EA4C68000 DUP2 JUMP JUMPDEST CALLVALUE DUP1 ISZERO PUSH2 0x2EF JUMPI PUSH1 0x0 DUP1 REVERT JUMPDEST POP PUSH2 0x221 PUSH2 0x798 JUMP JUMPDEST PUSH2 0x221 PUSH2 0x837 JUMP JUMPDEST CALLVALUE DUP1 ISZERO PUSH2 0x30C JUMPI PUSH1 0x0 DUP1 REVERT JUMPDEST POP PUSH2 0x1A6 PUSH2 0x973 JUMP JUMPDEST CALLVALUE DUP1 ISZERO PUSH2 0x321 JUMPI PUSH1 0x0 DUP1 REVERT JUMPDEST POP CALLER PUSH1 0x0 SWAP1 DUP2 MSTORE PUSH1 0x5 PUSH1 0x20 MSTORE PUSH1 0x40 SWAP1 KECCAK256 SLOAD ISZERO ISZERO PUSH1 0x40 MLOAD SWAP1 ISZERO ISZERO DUP2 MSTORE PUSH1 0x20 ADD PUSH2 0x1B0 JUMP JUMPDEST CALLVALUE DUP1 ISZERO PUSH2 0x350 JUMPI PUSH1 0x0 DUP1 REVERT JUMPDEST POP PUSH2 0x1A6 PUSH1 0x64 DUP2 JUMP JUMPDEST CALLVALUE DUP1 ISZERO PUSH2 0x365 JUMPI PUSH1 0x0 DUP1 REVERT JUMPDEST POP PUSH2 0x221 PUSH2 0x989 JUMP JUMPDEST CALLVALUE DUP1 ISZERO PUSH2 0x37A JUMPI PUSH1 0x0 DUP1 REVERT JUMPDEST POP PUSH2 0x263 PUSH2 0x389 CALLDATASIZE PUSH1 0x4 PUSH2 0xE94 JUMP JUMPDEST PUSH2 0xAAD JUMP JUMPDEST CALLVALUE DUP1 ISZERO PUSH2 0x39A JUMPI PUSH1 0x0 DUP1 REVERT JUMPDEST POP PUSH2 0x1A6 PUSH1 0x2 SLOAD DUP2 JUMP JUMPDEST CALLVALUE DUP1 ISZERO PUSH2 0x3B0 JUMPI PUSH1 0x0 DUP1 REVERT JUMPDEST POP PUSH2 0x1A6 PUSH2 0xBC3 JUMP JUMPDEST CALLVALUE DUP1 ISZERO PUSH2 0x3C5 JUMPI PUSH1 0x0 DUP1 REVERT JUMPDEST POP PUSH2 0x1A6 PUSH2 0x3D4 CALLDATASIZE PUSH1 0x4 PUSH2 0xE94 JUMP JUMPDEST PUSH1 0x1 PUSH1 0x1 PUSH1 0xA0 SHL SUB AND PUSH1 0x0 SWAP1 DUP2 MSTORE PUSH1 0x5 PUSH1 0x20 MSTORE PUSH1 0x40 SWAP1 KECCAK256 SLOAD SWAP1 JUMP JUMPDEST CALLVALUE DUP1 ISZERO PUSH2 0x3FB JUMPI PUSH1 0x0 DUP1 REVERT JUMPDEST POP PUSH2 0x1A6 PUSH2 0x40A CALLDATASIZE PUSH1 0x4 PUSH2 0xE94 JUMP JUMPDEST PUSH1 0x5 PUSH1 0x20 MSTORE PUSH1 0x0 SWAP1 DUP2 MSTORE PUSH1 0x40 SWAP1 KECCAK256 SLOAD DUP2 JUMP JUMPDEST CALLVALUE DUP1 ISZERO PUSH2 0x428 JUMPI PUSH1 0x0 DUP1 REVERT JUMPDEST POP PUSH2 0x221 PUSH2 0xBDB JUMP JUMPDEST CALLVALUE DUP1 ISZERO PUSH2 0x43D JUMPI PUSH1 0x0 DUP1 REVERT JUMPDEST POP PUSH1 0x3 SLOAD PUSH2 0x290 SWAP1 PUSH1 0x1 PUSH1 0x1 PUSH1 0xA0 SHL SUB AND DUP2 JUMP JUMPDEST PUSH1 0x1 SLOAD PUSH1 0x1 PUSH1 0x1 PUSH1 0xA0 SHL SUB AND CALLER EQ PUSH2 0x4BB JUMPI PUSH1 0x40 MLOAD PUSH3 0x461BCD PUSH1 0xE5 SHL DUP2 MSTORE PUSH1 0x20 PUSH1 0x4 DUP3 ADD MSTORE PUSH1 0x22 PUSH1 0x24 DUP3 ADD MSTORE PUSH32 0x43616C6C6572206973206E6F7420746865206C6F7474657279206F7065726174 PUSH1 0x44 DUP3 ADD MSTORE PUSH2 0x37B9 PUSH1 0xF1 SHL PUSH1 0x64 DUP3 ADD MSTORE PUSH1 0x84 ADD JUMPDEST PUSH1 0x40 MLOAD DUP1 SWAP2 SUB SWAP1 REVERT JUMPDEST PUSH1 0x2 DUP1 SLOAD PUSH1 0x0 SWAP2 DUP3 SWAP1 SSTORE PUSH1 0x40 MLOAD CALLER SWAP3 DUP4 SWAP2 DUP4 ISZERO PUSH2 0x8FC MUL SWAP2 DUP5 SWAP2 SWAP1 DUP2 DUP2 DUP2 DUP6 DUP9 DUP9 CALL SWAP4 POP POP POP POP ISZERO DUP1 ISZERO PUSH2 0x4F3 JUMPI RETURNDATASIZE PUSH1 0x0 DUP1 RETURNDATACOPY RETURNDATASIZE PUSH1 0x0 REVERT JUMPDEST POP POP POP JUMP JUMPDEST PUSH1 0x1 SLOAD PUSH1 0x1 PUSH1 0x1 PUSH1 0xA0 SHL SUB AND CALLER EQ PUSH2 0x55D JUMPI PUSH1 0x40 MLOAD PUSH3 0x461BCD PUSH1 0xE5 SHL DUP2 MSTORE PUSH1 0x20 PUSH1 0x4 DUP3 ADD MSTORE PUSH1 0x22 PUSH1 0x24 DUP3 ADD MSTORE PUSH32 0x43616C6C6572206973206E6F7420746865206C6F7474657279206F7065726174 PUSH1 0x44 DUP3 ADD MSTORE PUSH2 0x37B9 PUSH1 0xF1 SHL PUSH1 0x64 DUP3 ADD MSTORE PUSH1 0x84 ADD PUSH2 0x4B2 JUMP JUMPDEST PUSH1 0x6 SLOAD PUSH2 0x5AC JUMPI PUSH1 0x40 MLOAD PUSH3 0x461BCD PUSH1 0xE5 SHL DUP2 MSTORE PUSH1 0x20 PUSH1 0x4 DUP3 ADD MSTORE PUSH1 0x19 PUSH1 0x24 DUP3 ADD MSTORE PUSH32 0x4E6F207469636B65747320776572652070757263686173656400000000000000 PUSH1 0x44 DUP3 ADD MSTORE PUSH1 0x64 ADD PUSH2 0x4B2 JUMP JUMPDEST PUSH1 0x6 SLOAD PUSH1 0x0 SWAP1 PUSH2 0x5BC SWAP1 NUMBER PUSH2 0xEDA JUMP JUMPDEST PUSH1 0x40 DUP1 MLOAD TIMESTAMP PUSH1 0x20 DUP3 ADD MSTORE SWAP2 BLOCKHASH SWAP1 DUP3 ADD DUP2 SWAP1 MSTORE SWAP2 POP PUSH1 0x0 SWAP1 PUSH1 0x60 ADD PUSH1 0x40 DUP1 MLOAD PUSH1 0x1F NOT DUP2 DUP5 SUB ADD DUP2 MSTORE SWAP2 SWAP1 MSTORE DUP1 MLOAD PUSH1 0x20 SWAP1 SWAP2 ADD KECCAK256 PUSH1 0x6 SLOAD SWAP1 SWAP2 POP PUSH1 0x0 SWAP1 PUSH2 0x601 SWAP1 DUP4 PUSH2 0xF09 JUMP JUMPDEST SWAP1 POP PUSH1 0x0 PUSH1 0x6 DUP3 DUP2 SLOAD DUP2 LT PUSH2 0x618 JUMPI PUSH2 0x618 PUSH2 0xF1D JUMP JUMPDEST PUSH1 0x0 SWAP2 DUP3 MSTORE PUSH1 0x20 SWAP1 SWAP2 KECCAK256 ADD SLOAD PUSH1 0x3 DUP1 SLOAD PUSH20 0xFFFFFFFFFFFFFFFFFFFFFFFFFFFFFFFFFFFFFFFF NOT AND PUSH1 0x1 PUSH1 0x1 PUSH1 0xA0 SHL SUB SWAP1 SWAP3 AND SWAP2 DUP3 OR SWAP1 SSTORE SWAP1 POP PUSH2 0x669 PUSH7 0x38D7EA4C68000 PUSH7 0x2386F26FC10000 PUSH2 0xEDA JUMP JUMPDEST PUSH1 0x6 SLOAD PUSH2 0x676 SWAP2 SWAP1 PUSH2 0xF33 JUMP JUMPDEST PUSH1 0x1 PUSH1 0x1 PUSH1 0xA0 SHL SUB DUP3 AND PUSH1 0x0 SWAP1 DUP2 MSTORE PUSH1 0x5 PUSH1 0x20 MSTORE PUSH1 0x40 DUP2 KECCAK256 DUP1 SLOAD SWAP1 SWAP2 SWAP1 PUSH2 0x69E SWAP1 DUP5 SWAP1 PUSH2 0xF4A JUMP JUMPDEST SWAP1 SWAP2 SSTORE POP POP PUSH1 0x1 PUSH1 0x1 PUSH1 0xA0 SHL SUB DUP2 AND PUSH1 0x0 SWAP1 DUP2 MSTORE PUSH1 0x5 PUSH1 0x20 MSTORE PUSH1 0x40 SWAP1 KECCAK256 SLOAD PUSH1 0x4 SSTORE PUSH1 0x6 SLOAD PUSH2 0x6D4 SWAP1 PUSH7 0x38D7EA4C68000 SWAP1 PUSH2 0xF33 JUMP JUMPDEST PUSH1 0x2 PUSH1 0x0 DUP3 DUP3 SLOAD PUSH2 0x6E5 SWAP2 SWAP1 PUSH2 0xF4A JUMP JUMPDEST SWAP1 SWAP2 SSTORE POP PUSH2 0x6F7 SWAP1 POP PUSH1 0x6 PUSH1 0x0 PUSH2 0xDF4 JUMP JUMPDEST PUSH2 0x703 PUSH2 0x708 TIMESTAMP PUSH2 0xF4A JUMP JUMPDEST PUSH1 0x0 SSTORE POP POP POP POP JUMP JUMPDEST PUSH1 0x60 PUSH1 0x6 DUP1 SLOAD DUP1 PUSH1 0x20 MUL PUSH1 0x20 ADD PUSH1 0x40 MLOAD SWAP1 DUP2 ADD PUSH1 0x40 MSTORE DUP1 SWAP3 SWAP2 SWAP1 DUP2 DUP2 MSTORE PUSH1 0x20 ADD DUP3 DUP1 SLOAD DUP1 ISZERO PUSH2 0x764 JUMPI PUSH1 0x20 MUL DUP3 ADD SWAP2 SWAP1 PUSH1 0x0 MSTORE PUSH1 0x20 PUSH1 0x0 KECCAK256 SWAP1 JUMPDEST DUP2 SLOAD PUSH1 0x1 PUSH1 0x1 PUSH1 0xA0 SHL SUB AND DUP2 MSTORE PUSH1 0x1 SWAP1 SWAP2 ADD SWAP1 PUSH1 0x20 ADD DUP1 DUP4 GT PUSH2 0x746 JUMPI JUMPDEST POP POP POP POP POP SWAP1 POP SWAP1 JUMP JUMPDEST PUSH1 0x6 DUP2 DUP2 SLOAD DUP2 LT PUSH2 0x77E JUMPI PUSH1 0x0 DUP1 REVERT JUMPDEST PUSH1 0x0 SWAP2 DUP3 MSTORE PUSH1 0x20 SWAP1 SWAP2 KECCAK256 ADD SLOAD PUSH1 0x1 PUSH1 0x1 PUSH1 0xA0 SHL SUB AND SWAP1 POP DUP2 JUMP JUMPDEST CALLER PUSH1 0x0 SWAP1 DUP2 MSTORE PUSH1 0x5 PUSH1 0x20 MSTORE PUSH1 0x40 SWAP1 KECCAK256 SLOAD PUSH2 0x7F4 JUMPI PUSH1 0x40 MLOAD PUSH3 0x461BCD PUSH1 0xE5 SHL DUP2 MSTORE PUSH1 0x20 PUSH1 0x4 DUP3 ADD MSTORE PUSH1 0x16 PUSH1 0x24 DUP3 ADD MSTORE PUSH32 0x43616C6C6572206973206E6F7420612077696E6E657200000000000000000000 PUSH1 0x44 DUP3 ADD MSTORE PUSH1 0x64 ADD PUSH2 0x4B2 JUMP JUMPDEST CALLER PUSH1 0x0 DUP2 DUP2 MSTORE PUSH1 0x5 PUSH1 0x20 MSTORE PUSH1 0x40 DUP1 DUP3 KECCAK256 DUP1 SLOAD SWAP1 DUP4 SWAP1 SSTORE SWAP1 MLOAD SWAP1 SWAP2 DUP4 SWAP2 DUP4 ISZERO PUSH2 0x8FC MUL SWAP2 DUP5 SWAP2 SWAP1 DUP2 DUP2 DUP2 DUP6 DUP9 DUP9 CALL SWAP4 POP POP POP POP ISZERO DUP1 ISZERO PUSH2 0x4F3 JUMPI RETURNDATASIZE PUSH1 0x0 DUP1 RETURNDATACOPY RETURNDATASIZE PUSH1 0x0 REVERT JUMPDEST PUSH2 0x848 PUSH7 0x2386F26FC10000 CALLVALUE PUSH2 0xF09 JUMP JUMPDEST ISZERO PUSH2 0x859 PUSH7 0x2386F26FC10000 PUSH2 0xCD3 JUMP JUMPDEST PUSH1 0x40 MLOAD PUSH1 0x20 ADD PUSH2 0x869 SWAP2 SWAP1 PUSH2 0xF81 JUMP JUMPDEST PUSH1 0x40 MLOAD PUSH1 0x20 DUP2 DUP4 SUB SUB DUP2 MSTORE SWAP1 PUSH1 0x40 MSTORE SWAP1 PUSH2 0x896 JUMPI PUSH1 0x40 MLOAD PUSH3 0x461BCD PUSH1 0xE5 SHL DUP2 MSTORE PUSH1 0x4 ADD PUSH2 0x4B2 SWAP2 SWAP1 PUSH2 0xFED JUMP JUMPDEST POP PUSH1 0x0 PUSH2 0x8AA PUSH7 0x2386F26FC10000 CALLVALUE PUSH2 0x1020 JUMP JUMPDEST SWAP1 POP PUSH2 0x8B4 PUSH2 0x973 JUMP JUMPDEST DUP2 GT ISZERO PUSH2 0x903 JUMPI PUSH1 0x40 MLOAD PUSH3 0x461BCD PUSH1 0xE5 SHL DUP2 MSTORE PUSH1 0x20 PUSH1 0x4 DUP3 ADD MSTORE PUSH1 0x1D PUSH1 0x24 DUP3 ADD MSTORE PUSH32 0x4E6F7420656E6F756768207469636B65747320617661696C61626C652E000000 PUSH1 0x44 DUP3 ADD MSTORE PUSH1 0x64 ADD PUSH2 0x4B2 JUMP JUMPDEST PUSH1 0x0 JUMPDEST DUP2 DUP2 LT ISZERO PUSH2 0x96F JUMPI PUSH1 0x6 DUP1 SLOAD PUSH1 0x1 DUP2 ADD DUP3 SSTORE PUSH1 0x0 SWAP2 SWAP1 SWAP2 MSTORE PUSH32 0xF652222313E28459528D920B65115C16C04F3EFC82AAEDC97BE59F3F377C0D3F ADD DUP1 SLOAD PUSH20 0xFFFFFFFFFFFFFFFFFFFFFFFFFFFFFFFFFFFFFFFF NOT AND CALLER OR SWAP1 SSTORE DUP1 PUSH2 0x967 DUP2 PUSH2 0x1034 JUMP JUMPDEST SWAP2 POP POP PUSH2 0x906 JUMP JUMPDEST POP POP JUMP JUMPDEST PUSH1 0x6 SLOAD PUSH1 0x0 SWAP1 PUSH2 0x984 SWAP1 PUSH1 0x64 PUSH2 0xEDA JUMP JUMPDEST SWAP1 POP SWAP1 JUMP JUMPDEST PUSH1 0x0 SLOAD TIMESTAMP LT ISZERO PUSH2 0x9DB JUMPI PUSH1 0x40 MLOAD PUSH3 0x461BCD PUSH1 0xE5 SHL DUP2 MSTORE PUSH1 0x20 PUSH1 0x4 DUP3 ADD MSTORE PUSH1 0x1B PUSH1 0x24 DUP3 ADD MSTORE PUSH32 0x746865206C6F7474657279206E6F742065787069726564207965740000000000 PUSH1 0x44 DUP3 ADD MSTORE PUSH1 0x64 ADD PUSH2 0x4B2 JUMP JUMPDEST PUSH1 0x0 JUMPDEST PUSH1 0x6 SLOAD DUP2 LT ISZERO PUSH2 0xA9E JUMPI PUSH1 0x0 PUSH1 0x6 DUP3 DUP2 SLOAD DUP2 LT PUSH2 0x9FD JUMPI PUSH2 0x9FD PUSH2 0xF1D JUMP JUMPDEST PUSH1 0x0 SWAP2 DUP3 MSTORE PUSH1 0x20 DUP3 KECCAK256 ADD SLOAD PUSH1 0x6 DUP1 SLOAD PUSH1 0x1 PUSH1 0x1 PUSH1 0xA0 SHL SUB SWAP1 SWAP3 AND SWAP4 POP SWAP1 DUP5 SWAP1 DUP2 LT PUSH2 0xA2A JUMPI PUSH2 0xA2A PUSH2 0xF1D JUMP JUMPDEST PUSH1 0x0 SWAP2 DUP3 MSTORE PUSH1 0x20 DUP3 KECCAK256 ADD DUP1 SLOAD PUSH20 0xFFFFFFFFFFFFFFFFFFFFFFFFFFFFFFFFFFFFFFFF NOT AND PUSH1 0x1 PUSH1 0x1 PUSH1 0xA0 SHL SUB SWAP4 DUP5 AND OR SWAP1 SSTORE PUSH1 0x40 MLOAD SWAP2 DUP4 AND SWAP2 PUSH7 0x2386F26FC10000 SWAP1 DUP3 DUP2 DUP2 DUP2 DUP6 DUP9 DUP4 CALL SWAP4 POP POP POP POP ISZERO DUP1 ISZERO PUSH2 0xA89 JUMPI RETURNDATASIZE PUSH1 0x0 DUP1 RETURNDATACOPY RETURNDATASIZE PUSH1 0x0 REVERT JUMPDEST POP POP DUP1 DUP1 PUSH2 0xA96 SWAP1 PUSH2 0x1034 JUMP JUMPDEST SWAP2 POP POP PUSH2 0x9DE JUMP JUMPDEST POP PUSH2 0xAAB PUSH1 0x6 PUSH1 0x0 PUSH2 0xDF4 JUMP JUMPDEST JUMP JUMPDEST PUSH1 0x6 SLOAD PUSH1 0x60 SWAP1 PUSH1 0x0 SWAP1 PUSH8 0xFFFFFFFFFFFFFFFF DUP2 GT ISZERO PUSH2 0xACE JUMPI PUSH2 0xACE PUSH2 0x104D JUMP JUMPDEST PUSH1 0x40 MLOAD SWAP1 DUP1 DUP3 MSTORE DUP1 PUSH1 0x20 MUL PUSH1 0x20 ADD DUP3 ADD PUSH1 0x40 MSTORE DUP1 ISZERO PUSH2 0xAF7 JUMPI DUP2 PUSH1 0x20 ADD PUSH1 0x20 DUP3 MUL DUP1 CALLDATASIZE DUP4 CALLDATACOPY ADD SWAP1 POP JUMPDEST POP SWAP1 POP PUSH1 0x0 DUP1 JUMPDEST PUSH1 0x6 SLOAD DUP2 LT ISZERO PUSH2 0xBBA JUMPI DUP5 PUSH1 0x1 PUSH1 0x1 PUSH1 0xA0 SHL SUB AND PUSH1 0x6 DUP3 DUP2 SLOAD DUP2 LT PUSH2 0xB25 JUMPI PUSH2 0xB25 PUSH2 0xF1D JUMP JUMPDEST PUSH1 0x0 SWAP2 DUP3 MSTORE PUSH1 0x20 SWAP1 SWAP2 KECCAK256 ADD SLOAD PUSH1 0x1 PUSH1 0x1 PUSH1 0xA0 SHL SUB AND SUB PUSH2 0xBA8 JUMPI PUSH1 0x6 DUP2 DUP2 SLOAD DUP2 LT PUSH2 0xB52 JUMPI PUSH2 0xB52 PUSH2 0xF1D JUMP JUMPDEST SWAP1 PUSH1 0x0 MSTORE PUSH1 0x20 PUSH1 0x0 KECCAK256 ADD PUSH1 0x0 SWAP1 SLOAD SWAP1 PUSH2 0x100 EXP SWAP1 DIV PUSH1 0x1 PUSH1 0x1 PUSH1 0xA0 SHL SUB AND DUP4 DUP4 DUP2 MLOAD DUP2 LT PUSH2 0xB82 JUMPI PUSH2 0xB82 PUSH2 0xF1D JUMP JUMPDEST PUSH1 0x1 PUSH1 0x1 PUSH1 0xA0 SHL SUB SWAP1 SWAP3 AND PUSH1 0x20 SWAP3 DUP4 MUL SWAP2 SWAP1 SWAP2 ADD SWAP1 SWAP2 ADD MSTORE DUP2 PUSH2 0xBA4 DUP2 PUSH2 0x1034 JUMP JUMPDEST SWAP3 POP POP JUMPDEST DUP1 PUSH2 0xBB2 DUP2 PUSH2 0x1034 JUMP JUMPDEST SWAP2 POP POP PUSH2 0xAFE JUMP JUMPDEST POP SWAP1 SWAP4 SWAP3 POP POP POP JUMP JUMPDEST PUSH1 0x6 SLOAD PUSH1 0x0 SWAP1 PUSH2 0x984 SWAP1 PUSH7 0x2386F26FC10000 SWAP1 PUSH2 0xF33 JUMP JUMPDEST PUSH1 0x1 SLOAD PUSH1 0x1 PUSH1 0x1 PUSH1 0xA0 SHL SUB AND CALLER EQ PUSH2 0xC40 JUMPI PUSH1 0x40 MLOAD PUSH3 0x461BCD PUSH1 0xE5 SHL DUP2 MSTORE PUSH1 0x20 PUSH1 0x4 DUP3 ADD MSTORE PUSH1 0x22 PUSH1 0x24 DUP3 ADD MSTORE PUSH32 0x43616C6C6572206973206E6F7420746865206C6F7474657279206F7065726174 PUSH1 0x44 DUP3 ADD MSTORE PUSH2 0x37B9 PUSH1 0xF1 SHL PUSH1 0x64 DUP3 ADD MSTORE PUSH1 0x84 ADD PUSH2 0x4B2 JUMP JUMPDEST PUSH1 0x6 SLOAD ISZERO PUSH2 0xCB6 JUMPI PUSH1 0x40 MLOAD PUSH3 0x461BCD PUSH1 0xE5 SHL DUP2 MSTORE PUSH1 0x20 PUSH1 0x4 DUP3 ADD MSTORE PUSH1 0x26 PUSH1 0x24 DUP3 ADD MSTORE PUSH32 0x43616E6E6F742052657374617274204472617720617320447261772069732069 PUSH1 0x44 DUP3 ADD MSTORE PUSH32 0x6E20706C61790000000000000000000000000000000000000000000000000000 PUSH1 0x64 DUP3 ADD MSTORE PUSH1 0x84 ADD PUSH2 0x4B2 JUMP JUMPDEST PUSH2 0xCC2 PUSH1 0x6 PUSH1 0x0 PUSH2 0xDF4 JUMP JUMPDEST PUSH2 0xCCE PUSH2 0x708 TIMESTAMP PUSH2 0xF4A JUMP JUMPDEST PUSH1 0x0 SSTORE JUMP JUMPDEST PUSH1 0x60 DUP2 PUSH1 0x0 SUB PUSH2 0xCFA JUMPI POP POP PUSH1 0x40 DUP1 MLOAD DUP1 DUP3 ADD SWAP1 SWAP2 MSTORE PUSH1 0x1 DUP2 MSTORE PUSH1 0x3 PUSH1 0xFC SHL PUSH1 0x20 DUP3 ADD MSTORE SWAP1 JUMP JUMPDEST DUP2 PUSH1 0x0 JUMPDEST DUP2 ISZERO PUSH2 0xD24 JUMPI DUP1 PUSH2 0xD0E DUP2 PUSH2 0x1034 JUMP JUMPDEST SWAP2 POP PUSH2 0xD1D SWAP1 POP PUSH1 0xA DUP4 PUSH2 0x1020 JUMP JUMPDEST SWAP2 POP PUSH2 0xCFE JUMP JUMPDEST PUSH1 0x0 DUP2 PUSH8 0xFFFFFFFFFFFFFFFF DUP2 GT ISZERO PUSH2 0xD3F JUMPI PUSH2 0xD3F PUSH2 0x104D JUMP JUMPDEST PUSH1 0x40 MLOAD SWAP1 DUP1 DUP3 MSTORE DUP1 PUSH1 0x1F ADD PUSH1 0x1F NOT AND PUSH1 0x20 ADD DUP3 ADD PUSH1 0x40 MSTORE DUP1 ISZERO PUSH2 0xD69 JUMPI PUSH1 0x20 DUP3 ADD DUP2 DUP1 CALLDATASIZE DUP4 CALLDATACOPY ADD SWAP1 POP JUMPDEST POP SWAP1 POP JUMPDEST DUP5 ISZERO PUSH2 0xDEC JUMPI PUSH2 0xD7E PUSH1 0x1 DUP4 PUSH2 0xEDA JUMP JUMPDEST SWAP2 POP PUSH2 0xD8B PUSH1 0xA DUP7 PUSH2 0xF09 JUMP JUMPDEST PUSH2 0xD96 SWAP1 PUSH1 0x30 PUSH2 0xF4A JUMP JUMPDEST PUSH1 0xF8 SHL DUP2 DUP4 DUP2 MLOAD DUP2 LT PUSH2 0xDAB JUMPI PUSH2 0xDAB PUSH2 0xF1D JUMP JUMPDEST PUSH1 0x20 ADD ADD SWAP1 PUSH31 0xFFFFFFFFFFFFFFFFFFFFFFFFFFFFFFFFFFFFFFFFFFFFFFFFFFFFFFFFFFFFFF NOT AND SWAP1 DUP2 PUSH1 0x0 BYTE SWAP1 MSTORE8 POP PUSH2 0xDE5 PUSH1 0xA DUP7 PUSH2 0x1020 JUMP JUMPDEST SWAP5 POP PUSH2 0xD6D JUMP JUMPDEST SWAP5 SWAP4 POP POP POP POP JUMP JUMPDEST POP DUP1 SLOAD PUSH1 0x0 DUP3 SSTORE SWAP1 PUSH1 0x0 MSTORE PUSH1 0x20 PUSH1 0x0 KECCAK256 SWAP1 DUP2 ADD SWAP1 PUSH2 0xE12 SWAP2 SWAP1 PUSH2 0xE15 JUMP JUMPDEST POP JUMP JUMPDEST JUMPDEST DUP1 DUP3 GT ISZERO PUSH2 0xE2A JUMPI PUSH1 0x0 DUP2 SSTORE PUSH1 0x1 ADD PUSH2 0xE16 JUMP JUMPDEST POP SWAP1 JUMP JUMPDEST PUSH1 0x20 DUP1 DUP3 MSTORE DUP3 MLOAD DUP3 DUP3 ADD DUP2 SWAP1 MSTORE PUSH1 0x0 SWAP2 SWAP1 DUP5 DUP3 ADD SWAP1 PUSH1 0x40 DUP6 ADD SWAP1 DUP5 JUMPDEST DUP2 DUP2 LT ISZERO PUSH2 0xE6F JUMPI DUP4 MLOAD PUSH1 0x1 PUSH1 0x1 PUSH1 0xA0 SHL SUB AND DUP4 MSTORE SWAP3 DUP5 ADD SWAP3 SWAP2 DUP5 ADD SWAP2 PUSH1 0x1 ADD PUSH2 0xE4A JUMP JUMPDEST POP SWAP1 SWAP7 SWAP6 POP POP POP POP POP POP JUMP JUMPDEST PUSH1 0x0 PUSH1 0x20 DUP3 DUP5 SUB SLT ISZERO PUSH2 0xE8D JUMPI PUSH1 0x0 DUP1 REVERT JUMPDEST POP CALLDATALOAD SWAP2 SWAP1 POP JUMP JUMPDEST PUSH1 0x0 PUSH1 0x20 DUP3 DUP5 SUB SLT ISZERO PUSH2 0xEA6 JUMPI PUSH1 0x0 DUP1 REVERT JUMPDEST DUP2 CALLDATALOAD PUSH1 0x1 PUSH1 0x1 PUSH1 0xA0 SHL SUB DUP2 AND DUP2 EQ PUSH2 0xEBD JUMPI PUSH1 0x0 DUP1 REVERT JUMPDEST SWAP4 SWAP3 POP POP POP JUMP JUMPDEST PUSH4 0x4E487B71 PUSH1 0xE0 SHL PUSH1 0x0 MSTORE PUSH1 0x11 PUSH1 0x4 MSTORE PUSH1 0x24 PUSH1 0x0 REVERT JUMPDEST DUP2 DUP2 SUB DUP2 DUP2 GT ISZERO PUSH2 0xEED JUMPI PUSH2 0xEED PUSH2 0xEC4 JUMP JUMPDEST SWAP3 SWAP2 POP POP JUMP JUMPDEST PUSH4 0x4E487B71 PUSH1 0xE0 SHL PUSH1 0x0 MSTORE PUSH1 0x12 PUSH1 0x4 MSTORE PUSH1 0x24 PUSH1 0x0 REVERT JUMPDEST PUSH1 0x0 DUP3 PUSH2 0xF18 JUMPI PUSH2 0xF18 PUSH2 0xEF3 JUMP JUMPDEST POP MOD SWAP1 JUMP JUMPDEST PUSH4 0x4E487B71 PUSH1 0xE0 SHL PUSH1 0x0 MSTORE PUSH1 0x32 PUSH1 0x4 MSTORE PUSH1 0x24 PUSH1 0x0 REVERT JUMPDEST DUP1 DUP3 MUL DUP2 ISZERO DUP3 DUP3 DIV DUP5 EQ OR PUSH2 0xEED JUMPI PUSH2 0xEED PUSH2 0xEC4 JUMP JUMPDEST DUP1 DUP3 ADD DUP1 DUP3 GT ISZERO PUSH2 0xEED JUMPI PUSH2 0xEED PUSH2 0xEC4 JUMP JUMPDEST PUSH1 0x0 JUMPDEST DUP4 DUP2 LT ISZERO PUSH2 0xF78 JUMPI DUP2 DUP2 ADD MLOAD DUP4 DUP3 ADD MSTORE PUSH1 0x20 ADD PUSH2 0xF60 JUMP JUMPDEST POP POP PUSH1 0x0 SWAP2 ADD MSTORE JUMP JUMPDEST PUSH32 0x7468652076616C7565206D757374206265206D756C7469706C65206F66200000 DUP2 MSTORE PUSH1 0x0 DUP3 MLOAD PUSH2 0xFB9 DUP2 PUSH1 0x1E DUP6 ADD PUSH1 0x20 DUP8 ADD PUSH2 0xF5D JUMP JUMPDEST PUSH32 0x2045746865720000000000000000000000000000000000000000000000000000 PUSH1 0x1E SWAP4 SWAP1 SWAP2 ADD SWAP3 DUP4 ADD MSTORE POP PUSH1 0x24 ADD SWAP2 SWAP1 POP JUMP JUMPDEST PUSH1 0x20 DUP2 MSTORE PUSH1 0x0 DUP3 MLOAD DUP1 PUSH1 0x20 DUP5 ADD MSTORE PUSH2 0x100C DUP2 PUSH1 0x40 DUP6 ADD PUSH1 0x20 DUP8 ADD PUSH2 0xF5D JUMP JUMPDEST PUSH1 0x1F ADD PUSH1 0x1F NOT AND SWAP2 SWAP1 SWAP2 ADD PUSH1 0x40 ADD SWAP3 SWAP2 POP POP JUMP JUMPDEST PUSH1 0x0 DUP3 PUSH2 0x102F JUMPI PUSH2 0x102F PUSH2 0xEF3 JUMP JUMPDEST POP DIV SWAP1 JUMP JUMPDEST PUSH1 0x0 PUSH1 0x1 DUP3 ADD PUSH2 0x1046 JUMPI PUSH2 0x1046 PUSH2 0xEC4 JUMP JUMPDEST POP PUSH1 0x1 ADD SWAP1 JUMP JUMPDEST PUSH4 0x4E487B71 PUSH1 0xE0 SHL PUSH1 0x0 MSTORE PUSH1 0x41 PUSH1 0x4 MSTORE PUSH1 0x24 PUSH1 0x0 REVERT INVALID LOG2 PUSH5 0x6970667358 0x22 SLT KECCAK256 SWAP6 0xD6 EXTCODESIZE 0x2D 0xB3 PUSH16 0x5DC42C255F7ECF9F7AF5FF4B9489557D DUP11 0xC3 DUP10 0x29 DUP9 RETURN 0x4D 0xAB 0xD2 PUSH14 0x64736F6C63430008110033000000 "
    },
    "gasEstimates": {
      "creation": {
        "codeDepositCost": "849800",
        "executionCost": "52313",
        "totalCost": "902113"
      },
      "external": {
        "BuyTickets()": "infinite",
        "CurrentWinningReward()": "2468",
        "DrawWinnerTicket()": "infinite",
        "IsWinner()": "2450",
        "RefundAll()": "infinite",
        "RemainingTickets()": "2450",
        "WithdrawCommission()": "infinite",
        "WithdrawWinnings()": "infinite",
        "checkWinningsAmount()": "2418",
        "duration()": "275",
        "expiration()": "2374",
        "getTickets()": "infinite",
        "getTicketsForAddress(address)": "infinite",
        "getWinningsForAddress(address)": "2580",
        "lastWinner()": "2425",
        "lastWinnerAmount()": "2331",
        "lotteryOperator()": "2382",
        "maxTickets()": "229",
        "operatorTotalCommission()": "2329",
        "restartDraw()": "infinite",
        "ticketCommission()": "251",
        "ticketPrice()": "230",
        "tickets(uint256)": "4704",
        "winnings(address)": "2517"
      }
    },
    "methodIdentifiers": {
      "BuyTickets()": "91d8b14e",
      "CurrentWinningReward()": "c6944fa0",
      "DrawWinnerTicket()": "4788af7c",
      "IsWinner()": "96c85ef3",
      "RefundAll()": "a88f4672",
      "RemainingTickets()": "93a563b5",
      "WithdrawCommission()": "35580df2",
      "WithdrawWinnings()": "71827b7b",
      "checkWinningsAmount()": "0789c607",
      "duration()": "0fb5a6b4",
      "expiration()": "4665096d",
      "getTickets()": "4ed02622",
      "getTicketsForAddress(address)": "b9a8efb9",
      "getWinningsForAddress(address)": "dd64e534",
      "lastWinner()": "fe188184",
      "lastWinnerAmount()": "06f7f3bf",
      "lotteryOperator()": "5a58acdd",
      "maxTickets()": "9b894703",
      "operatorTotalCommission()": "ba946d79",
      "restartDraw()": "f2613269",
      "ticketCommission()": "6032a4f9",
      "ticketPrice()": "1209b1f6",
      "tickets(uint256)": "50b44712",
      "winnings(address)": "ea3a1499"
    }
  },
  "storageLayout": {
    "storage": [
      {
        "astId": 16,
        "contract": "Lottery.sol:Lottery",
        "label": "expiration",
        "offset": 0,
        "slot": "0",
        "type": "t_uint256"
      },
      {
        "astId": 18,
        "contract": "Lottery.sol:Lottery",
        "label": "lotteryOperator",
        "offset": 0,
        "slot": "1",
        "type": "t_address"
      },
      {
        "astId": 21,
        "contract": "Lottery.sol:Lottery",
        "label": "operatorTotalCommission",
        "offset": 0,
        "slot": "2",
        "type": "t_uint256"
      },
      {
        "astId": 23,
        "contract": "Lottery.sol:Lottery",
        "label": "lastWinner",
        "offset": 0,
        "slot": "3",
        "type": "t_address"
      },
      {
        "astId": 25,
        "contract": "Lottery.sol:Lottery",
        "label": "lastWinnerAmount",
        "offset": 0,
        "slot": "4",
        "type": "t_uint256"
      },
      {
        "astId": 29,
        "contract": "Lottery.sol:Lottery",
        "label": "winnings",
        "offset": 0,
        "slot": "5",
        "type": "t_mapping(t_address,t_uint256)"
      },
      {
        "astId": 32,
        "contract": "Lottery.sol:Lottery",
        "label": "tickets",
        "offset": 0,
        "slot": "6",
        "type": "t_array(t_address)dyn_storage"
      }
    ],
    "types": {
      "t_address": {
        "encoding": "inplace",
        "label": "address",
        "numberOfBytes": "20"
      },
      "t_array(t_address)dyn_storage": {
        "base": "t_address",
        "encoding": "dynamic_array",
        "label": "address[]",
        "numberOfBytes": "32"
      },
      "t_mapping(t_address,t_uint256)": {
        "encoding": "mapping",
        "key": "t_address",
        "label": "mapping(address => uint256)",
        "numberOfBytes": "32",
        "value": "t_uint256"
      },
      "t_uint256": {
        "encoding": "inplace",
        "label": "uint256",
        "numberOfBytes": "32"
      }
    }
  },
  "userdoc": {
    "kind": "user",
    "methods": {},
    "version": 1
  }
}